:100000000C943A000C9457000C9457000C94570031
:100010000C9457000C9457000C9457000C94570004
:100020000C9457000C9457000C9457000C94D9274B
:100030000C9457000C9457000C9457000C945700E4
:100040000C9457000C9457000C9457000C945700D4
:100050000C9457000C9457000C9457000C945700C4
:100060000C9457000C9457006364696E6F7073753D
:100070007858000011241FBECFEFD8E0DEBFCDBFFF
:1000800012E0A0E0B1E0E6EAF4E602C005900D92CD
:10009000A43AB107D9F714E0A4EAB2E001C01D9276
:1000A000AA39B107E1F70E94532B0C9451320C94FA
:1000B00000000895FC01238120930901848180932D
:1000C0000A0189E091E00C948230FB01805C9C4F36
:1000D000DC018C91982F9051903118F482E4808348
:1000E0003EC0803120F491E49083982F38C0803353
:1000F00028F493E49083982F905231C0803428F4F0
:1001000094E49083982F90532AC0803528F495E486
:100110009083982F905423C0803628F496E49083DF
:10012000982F90551CC0803728F497E49083982F1F
:10013000905615C087FD05C098E49083982F90577E
:100140000EC0803928F499E49083982F905807C006
:100150008FE38083FA011082D9011C920895892FC0
:100160008695FA0180839170D9019C930895805CF3
:100170009C4FFC018081843D39F48091150180936E
:10018000130110921401089514BC15BC1092B00014
:100190001092B1001092B40018BC17BC8AB18AB991
:1001A00010928203109283030895EF92FF920F93AF
:1001B0001F93CF93DF9300D01F92CDB7DEB78C0192
:1001C0001B821A82198280E4E82E83E0F82EE00E6A
:1001D000F11EF7018081885C853130F4C8010E94EE
:1001E000B7008FEFF70139C09E012F5F3F4FAE017F
:1001F0004E5F5F4FBE016D5F7F4FC8010E9465007B
:100200008B81823449F0833461F0843479F0A0E04A
:10021000B0E0E0E0F0E00EC0A4E2B0E0E5E2F0E043
:1002200009C0A7E2B0E0E8E2F0E004C0AAE2B0E072
:10023000EBE2F0E02C9181E090E00A8002C0880FB0
:10024000991F0A94E2F7809528232C939081982394
:100250009083F801E05CFC4F8FEF80830F900F904C
:100260000F90DF91CF911F910F91FF90EF90089524
:100270008091B8039091B90301969093B90380934C
:10028000B80320911B0130911C018217930708F4D9
:1002900066C01092B9031092B8038091BA038F5FC1
:1002A000863019F08093BA0302C01092BA032091ED
:1002B000BA03822F90E0FC01EE0FFF1FE80FF91F39
:1002C000E052FD4F808181110BC08181813041F46A
:1002D0008281811105C0222309F441C01092BA0322
:1002E0008091BA0390E0FC01EE0FFF1FE80FF91FA9
:1002F000E052FD4F8181A281609113017091140140
:100300009081969FA001979F500D112434E056953F
:1003100047953A95E1F75093B2034093B103869F16
:100320009001879F300D112454E0369527955A95FA
:10033000E1F73093B4032093B303A69FC001A79FB6
:10034000900D112464E0969587956A95E1F7909356
:10035000B6038093B5034093B40028BD87BD0895CC
:100360008091BB038F5F8093BB03823009F0E9C0AB
:100370001092BB038091BC039091BD0301969093B2
:10038000BD038093BC0320911D0130911E01821793
:10039000930708F4D6C01092BD031092BC0380915D
:1003A000BE039091BF038F3F910538F42FEF30E0EB
:1003B0003093B2032093B1030EC08F3F21E0920728
:1003C00098F42EEF31E0281B390B3093B2032093C1
:1003D000B1038FEF90E09093B4038093B303109236
:1003E000B6031092B50360C08F3F22E0920768F415
:1003F0001092B2031092B1032FEF30E03093B403A8
:100400002093B3038F5F914012C08F3F23E0920788
:1004100098F41092B2031092B1032EEF33E0281B30
:10042000390B3093B4032093B3038FEF90E0909394
:10043000B6038093B50338C08F3F24E0920758F489
:100440008F5F93409093B2038093B1031092B403F3
:100450001092B303EACF8F3F25E0920798F42FEF75
:1004600030E03093B2032093B1031092B4031092A2
:10047000B3032EEF35E0281B390B3093B6032093DE
:10048000B50312C08FEF90E09093B2038093B10355
:100490001092B4031092B3031092B6031092B503F6
:1004A0001092BF031092BE0360911301709114016A
:1004B0008091B1039091B203689FA001699F500D94
:1004C000789F500D1124E4E056954795EA95E1F7A1
:1004D0005093B2034093B1038091B3039091B4035E
:1004E000689F9001699F300D789F300D1124F4E0D2
:1004F00036952795FA95E1F73093B4032093B3032B
:10050000E091B503F091B6036E9FC0016F9F900D0F
:100510007E9F900D1124A4E096958795AA95E1F70A
:100520009093B6038093B5034093B40028BD87BD74
:100530008091BE039091BF0301969093BF03809377
:10054000BE0308952AE0AC01249FC001259F900DB1
:10055000112480549C4F20E030E04FEFFC01E20F6B
:10056000F31F40832F5F3F4F2A303105B9F70895BD
:100570002AE0AC01249FC001259F900D11248054D6
:100580009C4F25E030E0FC01E20FF31F40814F3F1C
:1005900039F02F5F3F4F29303105A9F720E030E0D7
:1005A000C9010895CF93DF9320E030E0CAE0F9015C
:1005B0003496C89FA001C99F500D1124421B530BB4
:1005C00040545C4FDA01A20FB31F1596DC91DF3F58
:1005D000A9F0DB01A20FB31FDC932F5F3F4F2E1753
:1005E0003F0781F7C89FF001C99FF00D1124E05427
:1005F000FC4F81858F3F11F090E0D9CFC901DF9189
:10060000CF9108958F929F92AF92BF92CF92DF9237
:10061000EF92FF921F93CF93DF93CDB7DEB764972E
:100620000FB6F894DEBF0FBECDBF4B01611571054B
:1006300051F46AE0689FF001699FF00D1124E054C5
:10064000FC4F8480912CBE016F5F7F4F298B3A8BCA
:100650004B8B5C8B0E94D202AA2497FCA094BA2CEC
:10066000C090AA03D090AB03E090AC03F090AD0330
:1006700029893A894B895C89211531054105510544
:1006800031F4A50194012C0D3D1D4E1D5F1DC80CBC
:10069000D91CEA1CFB1CFE013196BF0116C0A191BA
:1006A00014E0A19FD0011124A050BD4F8D909D90CA
:1006B000AD90BC9013978C149D04AE04BF0428F435
:1006C0002D933D934D935C931397DF01A61BB70BBE
:1006D000A817B90724F381E08093810364960FB6CD
:1006E000F894DEBF0FBECDBFDF91CF911F91FF9079
:1006F000EF90DF90CF90BF90AF909F908F90089534
:10070000EF92FF920F931F93CF93DF937C01EB0146
:100710008A01FC0120E030E011922F5F3F4F2E3024
:100720003105D1F7CE010E94D9318735944461F467
:10073000A80142505109BE016E5F7F4FC7010E9460
:10074000C93121E030E002C020E030E0C901DF9192
:10075000CF911F910F91FF90EF900895CF93DF936A
:10076000EB01425051096E5F7F4F0E94DF3167E518
:1007700074E4CE01DF91CF910C94013260E070E01F
:100780000C9401321092800088E0809381001092D6
:1007900089001092880082E080936F0008958FEFA7
:1007A0009FEF9093850080938400E1E8F0E08081E2
:1007B000856080830895E1E8F0E080818A7F80830E
:1007C0000895CF93DF93FB01EA018EE090E0861B52
:1007D000970B6CE070E00E94E62E2091FE023091B3
:1007E000FF02261B370B8CE0869FA001879F500DD0
:1007F00011244E0F5F1F425051096DE0649FC001EC
:10080000659F900D1124019765E070E00E94E62E2F
:10081000C60FD71FC20FD31FF90137FD3396F595C9
:10082000E795F595E795EC0FFD1FC9016CE97FEFA2
:100830000E94E62EE60FF71FC90160E971E00E94F1
:10084000E62EE60FF71FCF0167E070E00E94E62E6C
:10085000DF91CF910895CF93DF93CDB7DEB768973F
:100860000FB6F894DEBF0FBECDBF28E1E3E2F1E0A2
:10087000DE01119601900D922A95E1F78370992778
:10088000892B21F48DE190E098878F83FE013196CA
:100890009A0180E090E005C041915191240F351FED
:1008A000019686179707C4F3C90168960FB6F894A6
:1008B000DEBF0FBECDBFDF91CF910895809194042C
:1008C0008130E9F18091FC029091FD0220915C045D
:1008D00030915D0482179307A1F44091FA02509180
:1008E000FB0220915E0430915F044217530749F4E4
:1008F00081E0809394048091F8029091F90201962E
:100900001AC0209160043091610482179307B9F4F2
:100910002091FA023091FB0280916204909163046D
:100920002817390761F481E0809394048091F802DC
:100930009091F90201979093F9028093F80208953B
:10094000109294048091F2029091F3020196909398
:10095000F3028093F202079771F02091FA0230912E
:10096000FB022F5F3F4F3093FB022093FA022D31A1
:10097000310540F508951092F3021092F2021092A0
:10098000AA031092AB031092AC031092AD03E0E007
:10099000F3E080819181A281B38180382AE39207BC
:1009A00029E0A207B10540F080589A43A940B10957
:1009B00080839183A283B383349683E0E034F80785
:1009C00041F7CBCF8091FC029091FD0286309105DA
:1009D000F9F098F483309105F9F038F481309105FD
:1009E000D9F0029709F051C039C08430910581F0E7
:1009F0008530910509F049C00FC08930910541F05B
:100A000058F08B30910521F038F00C97F1F50FC0BC
:100A10002F313105D0F103C020323105B0F121E092
:100A200030E03093FB022093FA0201962AC0203274
:100A3000310558F181E090E09093FB028093FA0237
:100A40009093FD028093FC028091FE029091FF0240
:100A500001969093FF028093FE0208958091FE021A
:100A60009091FF0283709927892B19F42D3131055C
:100A700061F081E090E09093FB028093FA0283E0C2
:100A800090E09093FD028093FC0208956F927F9214
:100A90008F929F92AF92BF92CF92DF92EF92FF928E
:100AA0000F931F93CF93DF934091AA035091AB0311
:100AB0006091AC037091AD0320918103E0E0F3E01D
:100AC00080819181A281B3810097A105B10551F088
:100AD00084179507A607B70728F41082118212829F
:100AE000138221E0349683E0E034F80749F720933D
:100AF0008103C4ECD3E000E010E030E4C32ED12C3D
:100B0000FE01349780818F3F09F45EC0FE01339768
:100B100020812F3F09F458C07090F2026090F302D8
:100B200090E0A601072C02C0559547950A94E2F77C
:100B300084239523892B09F447C0822F90E0A0E0FD
:100B4000B0E02227382F492F5A2FFE01329780819B
:100B5000282BACE3B0E00E94B72E4B015C01FE01F4
:100B60003197F081E881A72DB62D20E831E541E0ED
:100B700050E00E94B72E860E971EA81EB91E409107
:100B8000AA035091AB036091AC037091AD0348157B
:100B900059056A057B05C0F0FF2EE12CC7018E2B9D
:100BA000AA2797FDA095BA2F880D991DAA1DBB1DD8
:100BB000481759076A077B0738F4A501940160E0DC
:100BC00070E0C8010E9402030F5F1F4F2A960A308F
:100BD000110509F095CFDF91CF911F910F91FF90F3
:100BE000EF90DF90CF90BF90AF909F908F907F90CD
:100BF0006F9008957F928F929F92AF92BF92CF9203
:100C0000DF92EF92FF920F931F93CF93DF9300D069
:100C10001F92CDB7DEB710E4812E13E0912E00E0D5
:100C2000C02E03E0D02E00E010E0E12CF12CAA242D
:100C3000A394B12C77247394F40121914F012F3F99
:100C400009F4BBC0822F885C853108F076C0F601BC
:100C500080819181A281B381892B8A2B8B2BF9F41E
:100C6000283C29F41092B40018BC17BCA6C0293C3B
:100C700039F41092B40018BC17BC109282039DC0C6
:100C80002A3C39F41092B40018BC17BC10928303AC
:100C900094C0243D09F091C08091150146C0283CC4
:100CA000C9F58091AF03E091B00360911301709199
:100CB00014019091AE03969FA001979F500D1124AF
:100CC000F4E056954795FA95E1F75093B2034093B7
:100CD000B103869F9001879F300D1124A4E03695C3
:100CE0002795AA95E1F73093B4032093B303E69FC9
:100CF000C001E79F900D1124B4E096958795BA95B1
:100D0000E1F79093B6038093B5034093B40028BDF8
:100D100087BD53C02A3C19F4709283034EC0243D12
:100D200049F4F701E05BFC4F80818093130110923E
:100D3000140143C07092820340C09E012F5F3F4F59
:100D4000AE014E5F5F4FBE016D5F7F4FC7010E94D6
:100D500065002A818B81823429F0833431F0843418
:100D600049F406C005E210E005C008E210E002C048
:100D70000BE210E0F60180819181A281B38139817B
:100D8000F801892B8A2B8B2B19F4311103C00CC06D
:100D900031110AC03081C501022E01C0880F0A94AA
:100DA000EAF78095382308C03081C501022E01C0C2
:100DB000880F0A94EAF7382B3083FFEFEF1AFF0A07
:100DC00084E0C80ED11CE0E1EE16F10409F034CF46
:100DD0000F900F900F90DF91CF911F910F91FF9087
:100DE000EF90DF90CF90BF90AF909F908F907F90CB
:100DF0000895CF93DF93EB0118824AE050E06CE056
:100E000071E00E94FC30ECE0F1E001900020E9F795
:100E1000EE50F14029F461E872E0CE010E94DA3030
:100E20006CE071E0CE01DF91CF910C94DA3010923A
:100E30008A0365E472E08AE893E00E94DA3069E0B0
:100E400071E08091FC029091FD020E94F90669E038
:100E500071E08AE893E00E94DA306BE371E08AE89F
:100E600093E00E94DA3069E071E08091FA0290919B
:100E7000FB020E94F90669E071E08AE893E00E94B3
:100E8000DA306BE371E08AE893E00E94DA304AE0FE
:100E900050E069E071E08091FE029091FF020E94B3
:100EA000FC3069E071E08AE893E00E94DA3065E4A2
:100EB00072E08AE893E00E94DA3069E071E08091A4
:100EC000F8029091F9020E94F90669E071E08AE85F
:100ED00093E00E94DA3061EE71E08AE893E00E94CC
:100EE000DA3069E071E08091F6029091F7020E9499
:100EF000F90669E071E08AE893E00E94DA3061EE79
:100F000071E08AE893E00E94DA3069E071E0809154
:100F1000F4029091F5020E94F90669E071E08AE816
:100F200093E00C94DA300F931F93CF93DF938C01EF
:100F3000EB01188265E471E0CE010E94DA3040E1F5
:100F400050E06CE071E0C8010E94FC30ECE0F1E0A0
:100F500001900020E9F73197EC50F140E130F105C4
:100F600011F0339729F461E872E0CE010E94DA3083
:100F70006CE071E0CE01DF91CF911F910F910C9445
:100F8000DA30CF93DF93EB01188240E150E06CE060
:100F900071E00E94FC30ECE0F1E001900020E9F704
:100FA0003197EC50F140E130F10511F0339729F41D
:100FB00061E872E0CE010E94DA306CE071E0CE01AF
:100FC000DF91CF910C94DA300F93CF93DC0120E0C6
:100FD00030E040E050E060E070E080E090E0E0E091
:100FE000F0E0CD91C22B2C2FE430F10519F008E090
:100FF0000E94382F3196E530F10599F7CF910F9186
:101000000895EF92FF920F931F93CF93DF93CDB785
:10101000DEB72E970FB6F894DEBF0FBECDBF47E008
:1010200050E06EE070E0CE0101960E9480030197CF
:10103000D9F4CE0101960E94E40720932404309352
:10104000250440932604509327046093280470934A
:10105000290480932A0490932B0489019A01AB01FF
:10106000BC0180E10E94472947E050E065E170E063
:10107000CE0101960E9480030197D9F4CE0101961A
:101080000E94E40720932C0430932D0440932E04F7
:1010900050932F0460933004709331048093320492
:1010A0009093330489019A01AB01BC018AE00E944C
:1010B000472947E050E06CE170E0CE0101960E94C4
:1010C00080030197D9F4CE0101960E94E407209392
:1010D00034043093350440933604509337046093BE
:1010E00038047093390480933A0490933B04890147
:1010F0009A01AB01BC018BE00E94472943E050E01C
:1011000063E270E0CE0101960E9480030197D9F45A
:10111000098100933C0410923D0410923E04109209
:101120003F04109240041092410410924204109225
:10113000430410E020E030E040E050E060E070E088
:101140008CE00E94472943E050E066E270E0CE0167
:1011500001960E9480030197D9F409810093440409
:1011600010924504109246041092470410924804CD
:101170001092490410924A0410924B0410E020E0AF
:1011800030E040E050E060E070E08DE00E944729F0
:1011900043E050E069E270E0CE0101960E948003D6
:1011A0000197D9F4098100934C0410924D041092D8
:1011B0004E0410924F041092500410925104109259
:1011C00052041092530410E020E030E040E050E080
:1011D00060E070E08EE00E94472943E050E06CE25E
:1011E00070E0CE0101960E9480030197D9F4098135
:1011F0000093540410925504109256041092570410
:10120000109258041092590410925A0410925B04E0
:1012100010E020E030E040E050E060E070E08FE07F
:101220000E94472944E050E069E171E0CE01019657
:101230000E948003019791F4898190E0A0E0B0E0E2
:10124000BA2FA92F982F88272A81822B80931F01DC
:1012500090932001A0932101B09322014AE050E035
:1012600066E070E0CE0101960E948003019701F5CF
:10127000998180E02A81822B90935D0480935C04A5
:101280009B8180E02C81822B90935F0480935E048D
:101290009D8180E02E81822B909361048093600475
:1012A0009F8180E02885822B909363048093620461
:1012B00048E050E060E070E0CE0101960E948003BB
:1012C000019791F4CE0101960E94A03060938603AD
:1012D0007093870380938803909389032AE030E01A
:1012E00042E051E00E941D3142E150E060E370E0D5
:1012F00080E493E00E948003019709F048C042E136
:1013000050E060E271E080E593E00E94800380E4B9
:1013100093E041E050E0FC012191CF01622F605148
:10132000603188F0203330F46051A7E2B0E0E8E2A9
:10133000F0E00DC0203400F5622F6053AAE2B0E067
:10134000EBE2F0E004C0A4E2B0E0E5E2F0E07C9182
:10135000262F26958A0102C0000F111F2A95E2F759
:101360009801702B7C9360FD03C02081202B03C06B
:10137000308120952323208313E08035910759F68F
:1013800040ECE42E43E0F42E01EA10E009C0E0E472
:10139000F3E08FEF819323E0E035F207D9F7F0CF48
:1013A0004CE050E0B801CE0101960E948003019705
:1013B00051F0045F1F4F8AE0E80EF11C093191E003
:1013C000190771F70EC0FE01319680E090E021917F
:1013D000D701A80FB91F2C9301968A309105B9F750
:1013E000E8CF30E6E32E33E0F32E02E410E04AE0EB
:1013F00050E0B801CE0101960E948003019749F0A8
:10140000065F1F4FE8E0EE0EF11C0A36110579F772
:101410000EC0FE01319680E090E02191D701A80F27
:10142000B91F2C93019688309105B9F7E9CF04E6EE
:1014300014E02AE6E22EF12C45E050E0B701CE019F
:1014400001960E9480030197C9F4898190E0A0E091
:10145000B0E0F80180839183A283B3838A8190E016
:10146000A0E0B0E084839583A683B7838B8190E06E
:10147000A0E0B0E080879187A287B387F5E0EF0E08
:10148000F11C045F1F4F2EE7E216F104A9F643E0BA
:1014900050E06DE171E0CE0101960E94800301975A
:1014A000F9F48AB188668AB91092B40018BC17BCE6
:1014B0008981811108C081EF84BD81E38093B000F0
:1014C0001092B70308C081EA84BD81E28093B00026
:1014D00081E08093B70383E085BD84E08093B10011
:1014E00045E050E06EE770E0CE0101960E94800377
:1014F000019749F489818093AE038A818093AF0379
:101500008B818093B00302EE12E093E8E92EF12C78
:1015100045E050E0B701CE0101960E94800301979B
:1015200059F4F801329789818083F80131978A81D3
:1015300080838B81F8018083F5E0EF0EF11C0D5F55
:101540001F4F21EAE216F10419F72E960FB6F89410
:10155000DEBF0FBECDBFDF91CF911F910F91FF90E6
:10156000EF9008950F931F93F801248308E00E94E1
:10157000472F23830E94472F22830E94472F2183D6
:101580000E94472F20831F910F9108952F923F9221
:101590004F925F926F927F928F929F92AF92BF9283
:1015A000CF92DF92EF92FF920F931F93CF93DF932F
:1015B000CDB7DEB72C970FB6F894DEBF0FBECDBF08
:1015C000FC012090F2023090F3022101612C712C79
:1015D000A301920160E871E581E090E00E94C22ED3
:1015E0004B015C0143E0EE0FFF1F4A95E1F7E05A23
:1015F000FC4F6081C180EC2CF12C028109830381B6
:1016000010E0348120E08581A901482B5C874B875D
:10161000D7805FEFE516F10409F446C1F981EF2F99
:10162000F0E0FA87E987EF3FF10509F43DC170E08A
:1016300060527109CB01A0E0B0E0B595A7959795F0
:10164000879588309105A105B1050CF07EC2809385
:101650007C0080917A00806C80937A0080917A007F
:1016600084FFFCCF2091780030917900AFEFB0E09B
:101670000E94A42E2AE095958795779567952A95DF
:10168000D1F720917A00206120937A004C2C512CC4
:10169000612C712C46165706680679060CF055C267
:1016A000A985BA8511969D0140E050E06217730745
:1016B000840795070CF049C20038110590F5F80130
:1016C000E05CFC4F2081283C09F041C149855A85E6
:1016D0004E195F094B3F510508F039C19B01AC0120
:1016E0002419350946095709AFEFB0E00E94B72E1B
:1016F00029812C1930E040E050E00E941C2F822FFD
:10170000D2FC2093AE03D1FC8093AF03D0FC809336
:10171000B0038D2D877009F41AC181E08093810395
:1017200016C1ECE6F4E020E080819181A281B381D2
:10173000892B8A2B8B2B09F021E03C9634E0EC3985
:10174000F30791F721110AC020E030E0A9016B8571
:101750007C85C801805891090E94020384E6E82E26
:1017600084E0F82ECC24C394D12C00581109D70161
:101770004D905D906D907C90139714964D915D9176
:101780006D917C9117978091AA039091AB03A091E2
:10179000AC03B091AD0344155505660577050CF013
:1017A00046C02091F2023091F302480D591D6A1D86
:1017B0007B1D481759076A077B0748F1C901A0E05C
:1017C000B0E00097A105B10521F00197A109B10989
:1017D00004C086E090E0A0E0B0E0960102C0220FD5
:1017E000331F8A95E2F7A901662757FD6095762F8A
:1017F000F70180859185A285B385482359236A2303
:101800007B23452B462B472B09F444C03BC0480C97
:10181000591C6A1C7B1C84159505A605B705D0F1DB
:10182000C60102C0880F991F2A95E2F71AC0480C1A
:10183000591C6A1C7B1C84159505A605B70550F13B
:10184000480D591D6A1D7B1D481759076A077B07FC
:1018500008F1C6010090F20202C0880F991F0A9495
:10186000E2F7AA2797FDA095BA2FF7014085518589
:101870006285738584239523A623B723892B8A2B1E
:101880008B2B41F020E030E0A9016B857C85C801FD
:101890000E940203FCE0EF0EF11C24E9E21624E0B2
:1018A000F20609F064CF51C1862F90E0A0E0B0E0CD
:1018B000AC01BD0140515109610971094031510527
:1018C0006105710530F4CB01BA01B3E2CB2ED12C06
:1018D0001EC080339105A105B10554F4BC01CD01B2
:1018E0006052710981099109A6E2CA2ED12C0FC05C
:1018F00080349105A105B1050CF027C1BC01CD01D3
:101900006053710981099109F9E2CF2ED12C22E0AF
:1019100030E040E050E00E941C2F283031054105A6
:1019200051050CF012C1D6018C9190E002C0959542
:1019300087952A95E2F780FF04C0EF2809F4FDC0DF
:1019400004C1BFEFEB16F10409F0FFC0F6C0000FB1
:10195000111F000F111FF801E050FD4F4081518110
:1019600062817381411551056105710519F481E0AA
:10197000809381038091AA039091AB03A091AC0363
:10198000B091AD03EB85FC858E0F9F1FA11DB11D8E
:10199000481759076A077B0708F0D7C0F801E050DD
:1019A000FD4F80839183A283B383CFC080819181D7
:1019B000A281B381892B8A2B8B2B09F021E03C96E5
:1019C00034E0EC39F30791F721110AC020E030E050
:1019D000A9016B857C85C801805891090E9402038A
:1019E000D301C2010197A109B1094528462847281A
:1019F00031F476E0472E512C612C712C02C02C0161
:101A00003D0181E090E0AC0102C0440F551F4A94B3
:101A1000E2F79A01442737FD4095542F29833A83F2
:101A20004B835C832C0102C0440C551C2A94E2F7C2
:101A3000662457FC6094762C64E6E62E64E0F62E6D
:101A4000680130E8C31AD108D7018D919D910D909E
:101A5000BC91A02D8D839E83AF83B887F70144810D
:101A60005581668177818091AA039091AB03A09103
:101A7000AC03B091AD030D811E812F8138854017D5
:101A800051076207730724F5480D591D6A1D7B1D18
:101A9000481759076A077B0768F080859185A285FA
:101AA000B38529813A814B815C8182239323A423CE
:101AB000B5232DC04D815E816F817885480D591DFC
:101AC0006A1D7B1D84179507A607B70760F116C02E
:101AD0000D811E812F813885080D191D2A1D3B1D82
:101AE00080179107A207B307F0F0480D591D6A1D32
:101AF0007B1D481759076A077B07A8F0F701808507
:101B00009185A285B38584219521A621B721892BB2
:101B10008A2B8B2B41F020E030E0A9016B857C857E
:101B2000C6010E940203FCE0EF0EF11C04E9E0167E
:101B300004E0F00609F088CF08C00038110508F469
:101B400006CFECE6F4E020E031CF2C960FB6F89407
:101B5000DEBF0FBECDBFDF91CF911F910F91FF90E0
:101B6000EF90DF90CF90BF90AF909F908F907F903D
:101B70006F905F904F903F902F9008950F931F9319
:101B8000CF93DF9306E613E0C0E0D0E0F80136978C
:101B900080818F3F39F0F8018081811103C0CE012F
:101BA0000E94C60A2196085F1F4FC430D10571F705
:101BB000DF91CF911F910F9108950F931F93CF93B2
:101BC000DF9306E613E0C0E0D0E0F80136978081AD
:101BD0008F3FC9F0F8012081223008F411C030E0B5
:101BE00040E050E06091AA037091AB038091AC0398
:101BF0009091AD030E94FA2E672B682B692B19F484
:101C0000CE010E94C60A2196085F1F4FC430D1053D
:101C1000E1F6DF91CF911F910F9108958091950486
:101C20008F5F80939504529A90910001913049F40E
:101C3000823009F427C0843009F428C0883161F566
:101C400029C0923079F4823009F41CC0843009F440
:101C50001DC0883009F416C08A3009F417C08E31CF
:101C6000D9F418C09330C1F4823009F40BC0843029
:101C700009F40CC0883009F405C08A3009F406C0A4
:101C80008E3011F45A9A0895803111F45A980895BB
:101C9000843211F4109295040895109295045A9A82
:101CA000529A0895CF93DF9300D0CDB7DEB78983E2
:101CB0009A830E94D128AFE8B1E01197F1F700C0F4
:101CC00000008981E82F9A81F92FDF010D90002013
:101CD000E9F7BD01615071096E1B7F0B0E94A82AB4
:101CE000811104C082E08093000104C010920001C1
:101CF0000E944D0E0F900F90DF91CF910C94DB2836
:101D0000CF92DF92EF92FF92CF93DF93FC0183811A
:101D100080930C01848180930D01858180930E0155
:101D2000868180930F018781809310018085809345
:101D300011018CE091E00E94A0306B017C011092B7
:101D40008A036DE371E08AE893E00E94DA301C14A4
:101D50001D041E041F0484F4C0928603D0928703DE
:101D6000E0928803F09289032AE030E042E051E0FB
:101D7000C701B6010E941D31C2E0D1E009900020E8
:101D8000E9F72197C250D14007C061E872E08AE8C4
:101D900093E00E94DA302196C630D105B4F362E0B8
:101DA00071E08AE893E00E94DA308AE893E0DF91FC
:101DB000CF91FF90EF90DF90CF900C94520E2F9226
:101DC0003F924F925F926F927F928F929F92AF92CB
:101DD000BF92CF92DF92EF92FF920F931F93CF9318
:101DE000DF93CDB7DEB72B970FB6F894DEBF0FBEEB
:101DF000CDBF5C0110928A0385E0EBE6F1E0DE01E5
:101E0000179601900D928A95E1F786E0EDE7F2E0F2
:101E1000DE01119601900D928A95E1F7650188E047
:101E2000C80ED11C212C312C412C512C612C712C31
:101E3000812C912CE12CF12CF6013197808189873E
:101E4000F60180818A8740E050E060E070E0CE01DA
:101E500007960E946B2F872F880F880B262A372A18
:101E6000482A582A682A782A882A982AF4E0EF16FD
:101E7000F10459F09101A201B301C40108E00E94EC
:101E8000382F19012A013B014C018FEFE81AF80A9B
:101E9000E2E0CE0ED11CF5E0EF16F10469F6F50193
:101EA0008381833309F466C040F4813359F108F02B
:101EB00045C0803309F0CFC009C0853309F492C012
:101EC00008F474C0843509F0C6C0A8C020922C0460
:101ED00030922D0440922E0450922F0460923004D0
:101EE00070923104809232049092330462E471E083
:101EF0008AE893E00E94DA3081019201A301B401E3
:101F00008AE0A7C02092340430923504409236040F
:101F100050923704609238047092390480923A04E7
:101F200090923B0468E471E08AE893E00E94DA3022
:101F300081019201A301B4018BE08BC020923C048B
:101F400030923D0440923E0450923F04609240041F
:101F50007092410480924204909243046EE471E0D6
:101F60008AE893E00E94DA3081019201A301B40172
:101F70008CE06FC0209244043092450440924604A5
:101F800050924704609248047092490480924A0437
:101F900090924B0464E571E08AE893E00E94DA30A5
:101FA00081019201A301B4018DE053C020924C0441
:101FB00030924D0440924E0450924F04609250046F
:101FC0007092510480925204909253046AE571E039
:101FD0008AE893E00E94DA3081019201A301B40102
:101FE0008EE037C02092540430925504409256043B
:101FF00050925704609258047092590480925A0487
:1020000090925B0460E671E08AE893E00E94DA3027
:1020100081019201A301B4018FE01BC0209224042E
:10202000309225044092260450922704609228049E
:102030007092290480922A0490922B0466E671E043
:102040008AE893E00E94DA3081019201A301B40191
:1020500080E10E9447298E010F5F1F4F9101A2016D
:10206000B301C4010E94B20A78016E01F6E0CF0EFE
:10207000D11C66E171E0F70181917F0190E00E943F
:10208000C10766E171E08AE893E00E94DA30EC145F
:10209000FD0479F78AE893E00E94520E2B960FB662
:1020A000F894DEBF0FBECDBFDF91CF911F910F918E
:1020B000FF90EF90DF90CF90BF90AF909F908F9068
:1020C0007F906F905F904F903F902F900895EF9288
:1020D000FF920F931F93CF93DF9300D000D000D0D7
:1020E000CDB7DEB710928A03FC018381813319F5E5
:1020F00020913404309135044091360450913704D6
:1021000060913804709139048E010F5F1F4F8091E8
:102110003A0490913B040E94B20A60E771E08AE8B9
:1021200093E00E94DA308E010F5F1F4F7E01F6E0D0
:10213000EF0EF11C9AC08233C1F420913C0430911F
:102140003D0440913E0450913F04609140047091E1
:1021500041048E010F5F1F4F809142049091430410
:102160000E94B20A66E771E0DACF8333C1F42091AE
:1021700044043091450440914604509147046091D5
:102180004804709149048E010F5F1F4F80914A04EB
:1021900090914B040E94B20A6CE771E0C0CF843387
:1021A000C1F420914C0430914D0440914E04509163
:1021B0004F0460915004709151048E010F5F1F4FC6
:1021C00080915204909153040E94B20A62E871E037
:1021D000A6CF8533C1F42091540430915504409129
:1021E00056045091570460915804709159048E011F
:1021F0000F5F1F4F80915A0490915B040E94B20AB6
:1022000068E871E08CCF8435C1F4209124043091CA
:102210002504409126045091270460912804709170
:1022200029048E010F5F1F4F80912A0490912B0487
:102230000E94B20A6EE871E072CF20912C043091B6
:102240002D0440912E0450912F0460913004709120
:1022500031048E010F5F1F4F80913204909133043F
:102260000E94B20A63E971E05ACF66E171E0F801B9
:1022700081918F0190E00E94C10766E171E08AE8D8
:1022800093E00E94DA300E151F0579F78AE893E093
:102290000E94520E26960FB6F894DEBF0FBECDBF39
:1022A000DF91CF911F910F91FF90EF900895CF9301
:1022B000DF9310928A0369E971E08AE893E00E9453
:1022C000DA30C0E0D3E089919991A991B991892B35
:1022D0008A2B8B2B19F06EE971E002C061EA71E084
:1022E0008AE893E00E94DA30EAE8F3E00190002007
:1022F000E9F73197EA58F3407F9730F08AE893E0A6
:102300000E94520E10928E0383E0C034D807D9F693
:102310008AE893E0DF91CF910C94520ECF93DF9334
:1023200010928A0360EA71E08AE893E00E94DA3052
:10233000C0E6D3E088818F3F19F461EA71E002C002
:102340006EE971E08AE893E00E94DA30EAE8F3E0AF
:1023500001900020E9F73197EA58F3407F9730F079
:102360008AE893E00E94520E10928C03289683E034
:10237000C038D807F9F68AE893E0DF91CF910C9442
:10238000520ECF93DF9310928A0363EA71E08AE8DA
:1023900093E00E94DA30C0E4D3E089918F3F19F4D2
:1023A00061EA71E002C06EE971E08AE893E00E94A0
:1023B000DA30EAE8F3E001900020E9F73197EA58D3
:1023C000F3407F9730F08AE893E00E94520E10921B
:1023D0008D0383E0C035D80701F78AE893E0DF91E9
:1023E000CF910C94520ECF93DF9367EA71E08AE8A5
:1023F00093E00E94DA30C1ECD3E0FE013197808196
:102400008F3F31F488818F3F19F461EA71E002C097
:102410006EE971E08AE893E00E94DA30EAE8F3E0DE
:1024200001900020E9F73197EA58F3407F9730F0A8
:102430008AE893E00E94520E10928F032A9684E05D
:10244000C532D807D1F68AE893E0DF91CF910C949A
:10245000520E10928A036DEA71E08AE893E00E94BE
:10246000DA30E1ECF3E080E090E0DF0111972C91AD
:102470002F3F21F420812F3F09F401963A9624E062
:10248000E532F20791F766E171E00E94F90666E134
:1024900071E08AE893E00E94DA306BE371E08AE849
:1024A00093E00E94DA3066E171E08AE090E00E94F9
:1024B000F90666E171E08AE893E00E94DA3061EBA8
:1024C00071E08AE893E00E94DA30E0E4F3E080E033
:1024D00090E021912F3F09F0019623E0E035F207CB
:1024E000C1F766E171E00E94F90666E171E08AE8F1
:1024F00093E00E94DA306BE371E08AE893E00E9497
:10250000DA3066E171E080E190E00E94F90666E170
:1025100071E08AE893E00E94DA3066EB71E08AE8C5
:1025200093E00E94DA30E0E6F3E080E090E0208182
:102530002F3F09F00196389623E0E038F207B9F70B
:1025400066E171E00E94F90666E171E08AE893E0D5
:102550000E94DA306BE371E08AE893E00E94DA309F
:1025600066E171E084E090E00E94F90666E171E0C6
:102570008AE893E00E94DA306BEB71E08AE893E03E
:102580000E94DA30E2E6F3E080E090E02081211161
:102590000196389623E0E238F207C1F766E171E070
:1025A0000E94F90666E171E08AE893E00E94DA3061
:1025B0006BE371E08AE893E00E94DA3066E171E053
:1025C00084E090E00E94F90666E171E08AE893E019
:1025D0000E94DA3060EC71E08AE893E00E94DA3021
:1025E000E2EEF2E080E090E0DF0112972C91211101
:1025F00007C0DF0111972C91213011F420812111A6
:102600000196339622E0E43FF20771F766E171E04C
:102610000E94F90666E171E08AE893E00E94DA30F0
:102620006BE371E08AE893E00E94DA3066E171E0E2
:1026300086E090E00E94F90666E171E08AE893E0A6
:102640000E94DA308AE893E00C94520E0F931F93A5
:10265000CF93DF938C0110928A03FC0182818093D7
:102660000901838180930A0165EC71E08AE893E0B7
:102670000E94DA30C2E0D1E009900020E9F721970A
:10268000C250D14007C061E872E08AE893E00E943E
:10269000DA302196C630D105B4F362E071E08AE801
:1026A00093E00E94DA3080910101813019F468ECE6
:1026B00071E074C06FED71E08AE893E00E94DA3057
:1026C00066E171E08091FC029091FD020E94F906A2
:1026D00066E171E08AE893E00E94DA306BE371E032
:1026E0008AE893E00E94DA3066E171E08091FA02B4
:1026F0009091FB020E94F90666E171E08AE893E09E
:102700000E94DA306BE371E08AE893E00E94DA30ED
:1027100066E171E08091FE029091FF020E94F9064D
:1027200066E171E08AE893E00E94DA3065E472E0E5
:102730008AE893E00E94DA3066E171E08091F80265
:102740009091F9020E94F90666E171E08AE893E04F
:102750000E94DA3061EE71E08AE893E00E94DA309C
:1027600066E171E08091F6029091F7020E94F9060D
:1027700066E171E08AE893E00E94DA3061EE71E090
:102780008AE893E00E94DA3066E171E08091F40219
:102790009091F5020E94F90666E171E08AE893E003
:1027A0000E94DA308AE893E00E94520E10928A0367
:1027B000F8018281813761F00E94F3110E94C111FA
:1027C0000E948E11DF91CF911F910F910C945711A0
:1027D000DF91CF911F910F910895AF92BF92CF9249
:1027E000DF92EF92FF920F931F93CF93DF93CDB7BA
:1027F000DEB760970FB6F894DEBF0FBECDBFFC0109
:10280000238120930901848180930A0189E091E06A
:102810000E9482308C0110928A038AE0809FF0012E
:10282000819FF00D1124E054FC4F80818F3FB9F45B
:1028300081818F3FA1F463EE71E08AE893E00E940A
:10284000DA3069E071E0C8010E94F90669E071E0E0
:102850008AE893E00E94DA3066EE71E010C11982D6
:10286000BE016F5F7F4FC8010E94D2026C011092BF
:102870008A036DEE71E08AE893E00E94DA304AE064
:1028800050E069E071E0C8010E94FC3069E071E04D
:102890008AE893E00E94DA30C114D10439F463EF7E
:1028A00071E0CE0101960E94DA3029C067EF71E035
:1028B0008AE893E00E94DA30EE24E394F12CEC0EE7
:1028C000FD1E570116C061EE71E08AE893E00E9498
:1028D000DA304AE050E069E071E0F70181917F0170
:1028E00090E00E94FC3069E071E08AE893E00E9489
:1028F000DA30C7018A199B098C159D0524F38AE8F3
:1029000093E00E94520E10928A038AE0809FF001A9
:10291000819FF00D1124E054FC4F918180E02281D1
:10292000AC01422B9A015CE3E52EF12CC901B70101
:102930000E94D22E8B014CE3469FC001479F900D11
:1029400011246901C81AD90A338120E08481A901C0
:10295000482BCA01B7010E94D22EB62EE72EF08076
:1029600060EE71E08AE893E00E94DA304AE050E0DD
:1029700069E071E0C8010E94FC3069E071E08AE81A
:1029800093E00E94DA3061EE71E08AE893E00E9401
:10299000DA304AE050E069E071E0C6010E94FC30A4
:1029A00069E071E08AE893E00E94DA3069EF71E053
:1029B0008AE893E00E94DA304AE050E066E171E094
:1029C0008B2D9E2D0E94FC3066E171E08AE893E039
:1029D0000E94DA306FEF71E08AE893E00E94DA300B
:1029E0005FEFF51203C065E072E049C0F6FE03C078
:1029F00067EF71E002C06BE072E08AE893E00E944A
:102A0000DA30F5FE03C06DE072E002C06BE072E008
:102A10008AE893E00E94DA30F4FE03C06FE072E0CF
:102A200002C06BE072E08AE893E00E94DA30F3FEC5
:102A300003C061E172E002C06BE072E08AE893E0FB
:102A40000E94DA30F2FE03C06FE072E002C06BE079
:102A500072E08AE893E00E94DA30F1FE03C063E19D
:102A600072E002C06BE072E08AE893E00E94DA3024
:102A7000F0FE03C067EF71E002C06BE072E08AE82D
:102A800093E00E94DA308AE893E00E94520E60964A
:102A90000FB6F894DEBF0FBECDBFDF91CF911F916F
:102AA0000F91FF90EF90DF90CF90BF90AF9008957F
:102AB000CF92DF92EF92FF920F931F93CF93DF930A
:102AC0001F92CDB7DEB710928A0365E172E08AE803
:102AD00093E00E94DA300EEA13E0E12CF12C06C0FC
:102AE00063EC71E08AE893E00E94DA3066E171E01D
:102AF000F80181918F0190E00E94C10766E171E0C9
:102B00008AE893E00E94DA30FFEFEF1AFF0A83E0D1
:102B1000E816F10429F76CE172E08AE893E00E947C
:102B2000DA3066E171E08091B70390E00E94F90627
:102B300066E171E08AE893E00E94DA308AE893E087
:102B40000E94520E10928A0362E272E08AE893E0D9
:102B50000E94DA3070EEE72E72E0F72EC12CD12CF5
:102B600009C063EC71E08AE893E00E94DA30E3E0A8
:102B7000EE0EF11C65E471E08AE893E00E94DA3021
:102B800000E010E0F701E00FF11F66E171E08081E5
:102B900090E00E94C10766E171E08AE893E00E943C
:102BA000DA300F5F1F4F0330110561F7EAE8F3E0F9
:102BB00001900020E9F73197EA58F3407A9750F0F6
:102BC000F5E0CF16D10431F08AE893E00E94520E6E
:102BD000109290038FEFC81AD80AE6E0CE16D104FF
:102BE00009F0BFCF8AE893E00E94520E10928A0348
:102BF00000E413E0E12CF12CF80121918F01822FE8
:102C0000885C853178F569E272E08AE893E029838F
:102C10000E94DA302981283C19F46EE272E007C084
:102C20002A3C19F465E372E002C06BE372E08AE8C3
:102C300093E00E94DA306FE372E08AE893E00E944A
:102C4000DA3066E171E0C7010E94F90666E171E0E1
:102C50008AE893E00E94DA308AE893E00E94520EFC
:102C600010928A03FFEFEF1AFF0A80E1E816F104E1
:102C700019F60F90DF91CF911F910F91FF90EF9078
:102C8000DF90CF900895CF93DF93CDB7DEB7A397B2
:102C90000FB6F894DEBF0FBECDBF1BA21AA219A2B9
:102CA0000E945A001982FC01E05CFC4F2081322F07
:102CB000385C353190F420FD0DC02A3C19F467E4EE
:102CC00072E037C0243D19F46BE472E032C06FE467
:102CD00072E02FC063E572E02CC09E012F5D3F4F74
:102CE000AE014E5D5F4FBE016D5D7F4F0E9465007E
:102CF0008BA18093090110920A0169E071E0CE0175
:102D000001960E94DA304AE050E069E071E08AA161
:102D100090E00E94FC3069E071E0CE0101960E94D3
:102D2000DA3089A1811103C067E572E002C069E56C
:102D300072E0CE0101960E94DA30CE0101960E9427
:102D4000520EA3960FB6F894DEBF0FBECDBFDF9133
:102D5000CF9108958BE592E00C94520EFC012381F3
:102D600020930901848180930A0189E091E00E9407
:102D70008230E3E0880F991FEA95E1F7FC01E05A01
:102D8000FC4F208130E0A9014051510940315105EB
:102D900020F49A01E3E2F0E00FC0203331052CF477
:102DA00020523109E6E2F0E007C0203431059CF4FE
:102DB00020533109E9E2F0E0308141E050E001C008
:102DC000440F2A95EAF7409543234083FC01E05ADB
:102DD000FC4F2FEF20830C94AA16EF92FF920F93D3
:102DE0001F93CF93DF93EC01F9E0EF2EF1E0FF2E7C
:102DF0008B81F70180830AE011E08C81F8018083E8
:102E0000C7010E94823090935D0480935C048D81A1
:102E1000F70180838E81F8018083C7010E94823090
:102E200090935F0480935E048885F7018083898591
:102E3000F8018083C7010E948230909361048093DF
:102E400060048A85F70180838B85F8018083C70140
:102E50000E9482309093630480936204DF91CF914B
:102E60001F910F91FF90EF900C94AA16CF93DF93D0
:102E700080E090E00E94BE0386E090E00E94BE03E6
:102E80008EE090E00E94BE0385E190E00E94BE03C8
:102E90008CE190E00E94BE0383E290E00E94BE03BA
:102EA00086E290E00E94BE0389E290E00E94BE03A9
:102EB0008CE290E00E94BE0380E390E00E94BE039B
:102EC0008DE191E00E94BE0380E291E00E94BE038A
:102ED00082E490E00E94BE038CE490E00E94BE0376
:102EE00086E590E00E94BE0380E690E00E94BE036B
:102EF0008AE690E00E94BE038FE690E00E94BE0347
:102F000084E790E00E94BE0389E790E00E94BE0340
:102F10008EE790E00E94BE0383E890E00E94BE032B
:102F200088E890E00E94BE038DE890E00E94BE0316
:102F300082E990E00E94BE0387E990E00E94BE0310
:102F40008CE990E00E94BE03C1EAD0E0CE010E946D
:102F5000BE032C96C93181E0D807C1F789E191E021
:102F60000E94BE03DF91CF910C94AA16BF92CF921C
:102F7000DF92EF92FF920F931F93CF93DF93CDB722
:102F8000DEB72E970FB6F894DEBF0FBECDBFB09060
:102F90002404C0902504D0902604E0902704F090EB
:102FA0002804B0912904F0912A04E0912B042B2DE0
:102FB0003C2D4D2D5E2D6F2D7B2F8F2F9E2FA0E052
:102FC0000E945F2F61F08E010F5F1F4F0E94B20AB7
:102FD00047E050E06EE070E0C8010E94AE03B090A0
:102FE0002C04C0902D04D0902E04E0902F04F0907B
:102FF0003004B0913104F0913204E09133042B2D70
:103000003C2D4D2D5E2D6F2D7B2F8F2F9E2FA0E001
:103010000E945F2F61F08E010F5F1F4F0E94B20A66
:1030200047E050E065E170E0C8010E94AE03B09057
:103030003404C0903504D0903604E0903704F0900A
:103040003804B0913904F0913A04E0913B042B2DFF
:103050003C2D4D2D5E2D6F2D7B2F8F2F9E2FA0E0B1
:103060000E945F2F61F08E010F5F1F4F0E94B20A16
:1030700047E050E06CE170E0C8010E94AE03E091CF
:103080003C0430913D0440913E0450913F046091D6
:103090004004709141042E2F80914204909143048A
:1030A000A0E00E945F2F49F0E98343E050E063E233
:1030B00070E0CE0101960E94AE03E091440430918D
:1030C0004504409146045091470460914804709132
:1030D00049042E2F80914A0490914B04A0E00E9455
:1030E0005F2F49F0E98343E050E066E270E0CE01F3
:1030F00001960E94AE03E0914C0430914D04409142
:103100004E0450914F0460915004709151042E2F41
:103110008091520490915304A0E00E945F2F49F0E7
:10312000E98343E050E069E270E0CE0101960E943D
:10313000AE03E091540430915504409156045091EF
:10314000570460915804709159042E2F80915A04AD
:1031500090915B04A0E00E945F2F49F0E98343E077
:1031600050E06CE270E0CE0101960E94AE038091C7
:103170001F0190912001A0912101B091220100979F
:10318000A105B10551F099838A8344E050E069E1DB
:1031900071E0CE0101960E94AE0380915C04909193
:1031A0005D040097E1F099838A8380915E04909199
:1031B0005F049B838C8380916004909161049D8364
:1031C0008E8380916204909163049F8388874AE094
:1031D00050E066E070E0CE0101960E94AE0360917F
:1031E0008603709187038091880390918903161656
:1031F0001706180619067CF42AE030E0AE014F5F8E
:103200005F4F0E941D3148E050E060E070E0CE0169
:1032100001960E94AE03E0E4F3E010E080E09191BB
:103220009F3F09F081E0985C9F3108F411E093E042
:10323000E035F907A1F7813081F442E150E060E325
:1032400070E080E493E00E94AE0342E150E060E26F
:1032500071E080E593E00E94AE038091B70389831B
:10326000113041F443E050E06DE171E0CE01019690
:103270000E94AE0300ECE02E03E0F02E81ECC82E9D
:1032800083E0D82E01EA10E0B801F70180818F3F7A
:1032900021F4F60180818F3F99F0FE01319680E0A4
:1032A00090E0D701A80FB91F2C91219301968A3085
:1032B0009105B9F74CE050E0CE0101960E94AE03B3
:1032C000FAE0EF0EF11C8AE0C80ED11C045F1F4F1C
:1032D000093191E01907C1F610E6E12E13E0F12E55
:1032E00002E410E0F70180818F3FA1F0FE013196EA
:1032F00080E090E0D701A80FB91F2C91219301968F
:1033000088309105B9F74AE050E0B801CE01019646
:103310000E94AE03F8E0EF0EF11C065F1F4F0A3665
:10332000110501F704E614E0BAE6EB2EF12CF801E2
:1033300080859185A285B3850097A105B10561F0CF
:103340002081298324812A838B834AE050E0B701BE
:10335000CE0101960E94AE03045F1F4FF5E0EF0E11
:10336000F11C8EE7E816F10411F78091AE0381118C
:1033700004C09091AF039923B1F089838091AF038A
:103380008A838091B0038B8345E050E06EE770E064
:10339000CE0101960E94AE03A2E6EA2EA3E0FA2E29
:1033A00003E810E005C09091B0039111E6CFF4CF8F
:1033B000B8018091E002811104C08091E102813066
:1033C00091F0F701329780818983F70131978081ED
:1033D0008A83F70180818B8345E050E0CE0101961E
:1033E0000E94AE0304C08091E2028111EACFF8E0AE
:1033F000EF0EF11C0B5F1F4F013A1105C9F60E9439
:10340000AA162E960FB6F894DEBF0FBECDBFDF9181
:10341000CF911F910F91FF90EF90DF90CF90BF90D1
:103420000895CF92DF92EF92FF920F931F93CF9365
:10343000DF93EC011092190196E1C92E91E0D92E8B
:103440008E81F601808327E1E22E21E0F22E8F812A
:10345000F701808308E111E08885F8018083C601C7
:103460000E9482308093AE038A85F60180838B852B
:10347000F70180838C85F8018083C6010E94823029
:103480008093AF038E85F60180838F85F70180835B
:103490008889F8018083C6010E9482308093B0033E
:1034A00010928A03DF91CF911F910F91FF90EF90BF
:1034B000DF90CF900C94AA16FC0123812093090180
:1034C000848180930A0189E091E00E94823018167D
:1034D000190624F490931E0180931D010C94AA16E2
:1034E000FC01858180931601868180931701878175
:1034F0008093180180858093190186E191E00E94F4
:1035000082301816190624F490931C0180931B0135
:103510000C94AA160E945A000E94D5000C94AA1678
:10352000FC0183818093160184818093170185813A
:103530008093180186818093190186E191E00E94B1
:1035400082300097E1F44AE050E066E171E080915A
:103550001F01909120010E94FC3010928A036EE5B9
:1035600072E08AE893E00E94DA3066E171E08AE86E
:1035700093E00E94DA308AE893E00C94520EAA2776
:1035800097FDA095BA2F40911F01509120016091A5
:10359000210170912201480F591F6A1F7B1F409320
:1035A0001F015093200160932101709322010C941C
:1035B000AA160E945A009C0180911501211531051F
:1035C00079F54AE050E069E071E090E00E94FC305B
:1035D00010928A036AE672E08AE893E00E94DA3089
:1035E00069E071E08AE893E00E94DA3060E772E017
:1035F0008AE893E00E94DA304AE050E069E071E046
:1036000080911301909114010E94FC3069E071E0F7
:103610008AE893E00E94DA308AE893E00C94520E34
:103620002131310514F020E130E090E040911301A8
:10363000509114018417950721F4309314012093BD
:1036400013012093150181E0809381030C94AA1645
:10365000CF93DF93EC0110928A0363E772E08AE86C
:1036600093E00E94DA3069E071E0CE010E94930796
:1036700069E071E08AE893E00E94DA308AE893E03A
:10368000DF91CF910C94520E5F926F927F928F9246
:103690009F92AF92BF92CF92DF92EF92FF920F93E1
:1036A0001F93CF93DF93EC018B81809309018C8171
:1036B00080930A0189E091E00E9482307C0184E0DD
:1036C000E816F1041CF081E190E010C080E38093E3
:1036D00009018E8180930A0189E091E00E94823085
:1036E0006C01E7E0E81798F484E090E0DF91CF9177
:1036F0001F910F91FF90EF90DF90CF90BF90AF9010
:103700009F908F907F906F905F900C94281B89857D
:10371000809309018A8580930A0189E091E00E94E3
:1037200082308C018F8580930901888980930A01FA
:1037300089E091E00E9482304C018B8580931601D4
:103740008C85809317018D85809318018E858093D9
:10375000190186E191E00E948230582E288520359B
:1037600011F0203711F400581F4FB60177279B0145
:10377000220F331F4D81423411F0423641F4205F55
:103780003F4FA5E26A2E712CA4E2B0E01CC0433486
:1037900011F0433641F4205E3F4FF8E26F2E712C5A
:1037A000A7E2B0E010C0443411F0443641F4205D8B
:1037B0003F4FEBE26E2E712CAAE2B0E004C0612C08
:1037C000712CA0E0B0E040E453E05901FFEFAF1AE4
:1037D000BF0AFA01C190AF01D12CC216D30619F06D
:1037E000CA14DB0419F482E190E080CFF3E04035A5
:1037F0005F0779F7A70133E0440F551F3A95E1F7CA
:1038000070E6E72E73E0F72EE40EF51EF701208335
:103810002F81283421F0283611F0213339F4EA01C0
:10382000C05ADC4F19822FEF2A8304C02FEFF70113
:1038300021831282EA01C05ADC4F0B839C835D8294
:1038400094012F3F310519F014F02FEF30E02E8353
:103850008C9121E030E001C0220F6A95EAF7922FA7
:10386000909589238C93F3018081822B8083DF9153
:10387000CF911F910F91FF90EF90DF90CF90BF906D
:10388000AF909F908F907F906F905F900C94AA164E
:103890002F923F924F925F926F927F928F929F9260
:1038A000AF92BF92CF92DF92EF92FF920F931F934E
:1038B000CF93DF9300D01F92CDB7DEB79B838A836F
:1038C000DC0113968C9113978093090114968C91C7
:1038D00080930A0189E091E00E9482308C0184305B
:1038E00091051CF081E190E013C050E3B52EB09239
:1038F0000901EA81FB81868180930A0189E091E0D8
:103900000E9482306C01F7E0F817C8F484E090E080
:103910000F900F900F90DF91CF911F910F91FF901B
:10392000EF90DF90CF90BF90AF909F908F907F905F
:103930006F905F904F903F902F900C94281BAA811E
:10394000BB811E968C911E97809309011F968C91C6
:1039500080930A0189E091E00E9482307C01EA8133
:10396000FB81848980930901858980930A0189E01C
:1039700091E00E948230782E892EB0920901AA81AE
:10398000BB8156968C9180930A0189E091E00E9458
:103990008230982EB0921601EA81FB818781809354
:1039A000170180858093180181858093190186E134
:1039B00091E00E9482305C01AA81BB811A968C91B1
:1039C0001A97809317011B968C911B97809318016F
:1039D0001C968C918093190186E191E00E948230BF
:1039E0002C01EA81FB818089809316018189809373
:1039F000170182898093180183898093190186E1D8
:103A000091E00E948230682E9983AA81BB8115962D
:103A10008C91833429F0833619F083E090E078CFDD
:103A2000DD24C601880F991FAA2797FDA095BA2FFC
:103A30008096A11DB11DE0E4F3E0419150E060E00B
:103A400070E0481759076A077B0719F482E190E094
:103A50005FCF23E0E035F20781F793E0000F111FFD
:103A60009A95E1F720E6222E23E0322E200E311E19
:103A7000F101808327B181E090E001C0880FCA94F2
:103A8000EAF78095822387B92FEF30E0D5010E94B5
:103A9000B02E34E6A32EB12CC12CD12CA601950159
:103AA0000E941C2FD10111962C932FEF30E0D201F0
:103AB0000E94B02EA60195010E941C2F2F3F3105B8
:103AC0004105510521F42EEF30E040E050E0F801CF
:103AD000E05AFC4F2283EA81FB818585803511F015
:103AE000803719F4F0E8EF0EF11CF801E05AFC4FB2
:103AF000E382298124836582872D982D8F3F91054C
:103B000019F014F08FEF90E08683F801E05AFC4F33
:103B1000892D883008F087E0878380917A00816062
:103B200080937A000F900F900F90DF91CF911F91AB
:103B30000F91FF90EF90DF90CF90BF90AF909F904C
:103B40008F907F906F905F904F903F902F900C944C
:103B5000AA160F931F93CF93DF93EC018B81809371
:103B600009018C8180930A0189E091E00E948230F2
:103B70008C018A30910544F082E090E0DF91CF9192
:103B80001F910F910C94281B8D8180930C018E81C5
:103B900080930D018F8180930E01888580930F01A2
:103BA0008985809310018A85809311018CE091E0D2
:103BB0000E94A03020E030E0A901C8010E94020369
:103BC000DF91CF911F910F910C94AA16AF92BF92E3
:103BD000CF92DF92EF92FF920F931F93CF93DF93D9
:103BE000EC018B8180930901FC80F0920A0189E04D
:103BF00091E00E9482308C018A3091052CF400976C
:103C000031F420E3F21619F082E090E010C08AE06F
:103C1000809FF001819FF00D1124E054FC4F8081C2
:103C20008F3F89F481818F3F71F48DE090E0DF91C7
:103C3000CF911F910F91FF90EF90DF90CF90BF90A9
:103C4000AF900C94281B8D8180930901AE80A092C7
:103C50000A0189E091E00E9482306C018F8180939B
:103C60000901B884B0920A0189E091E00E94823093
:103C70007C018985809316018A85809317018B8545
:103C8000809318018C858093190186E191E00E9450
:103C9000823028E1C216D10434F4C114D10431F4C5
:103CA00020E3A21619F089E090E0C1CF2CE3E216E0
:103CB000F10434F4E114F10431F420E3B21619F004
:103CC0008AE090E0B4CF009719F48BE090E0AFCF9A
:103CD0006CE3689FA001699F500D11246C9D9001B9
:103CE0006D9D300D11242E0D3F1D8AE0809FF00147
:103CF000819FF00D1124E054FC4F318322835383C4
:103D000055274483DF91CF911F910F91FF90EF9042
:103D1000DF90CF90BF90AF900C94AA16EF92FF92D5
:103D20000F931F93CF93DF93CDB7DEB728970FB6CE
:103D3000F894DEBF0FBECDBF7C0188E0EBE7F2E078
:103D4000DE01119601900D928A95E1F7F7018381CA
:103D500080930901848180930A0189E091E00E94A7
:103D600082308C01F7018581898386818A838781EE
:103D70008B8380858C8381858D8382858E838385EB
:103D80008F8342E050E060E070E0CE0101960E9437
:103D90006B2F0A3011053CF40115110539F4F701B8
:103DA0002481203319F082E090E01EC02AE0209F99
:103DB000F001219FF00D1124E054FC4F20812F3F92
:103DC00031F421812F3F19F48DE090E00DC0AB015B
:103DD000BC014F77552766277727411551056105A7
:103DE000710529F48FE090E00E94281B0BC08AE047
:103DF000809FF001819FF00D1124E054FC4F40831F
:103E00000E94AA1628960FB6F894DEBF0FBECDBF4B
:103E1000DF91CF911F910F91FF90EF900895CF9276
:103E2000DF92EF92FF920F931F93CF93DF93CDB763
:103E3000DEB760970FB6F894DEBF0FBECDBF7C0132
:103E4000FC01838180930901848180930A0189E0C8
:103E500091E00E9482308C01F701858180930901F5
:103E6000868180930A0189E091E00E9482306C0192
:103E70001982BE016F5F7F4FC8010E94D202FE010E
:103E80003196AF0108C0219130E02C153D0519F4A1
:103E90008CE090E068C09F01241B350B2817390780
:103EA00094F30A3011053CF40115110539F4F701BA
:103EB0008481803319F082E090E055C0F0E1CF16A4
:103EC000D1043CF4C114D10439F4F7018681803364
:103ED00019F081E090E047C08AE0809FF001819F67
:103EE000F00D1124E054FC4F80818F3F31F481812B
:103EF0008F3F19F48DE090E036C04AE050E069E071
:103F000071E0C8010E94FC30C8010E94B80200970D
:103F1000C9F54AE0409FF001419FF00D1124E054A3
:103F2000FC4F818590E08F3F910551F52FEF30E0F8
:103F300089E090E0489FF001499FF00D1124E05482
:103F4000FC4F50815F3F31F455815F3F19F49C0174
:103F500080E090E001971816190664F32F3F3105B1
:103F600029F48EE090E00E94281B19C0409FF001C8
:103F7000419FF00D1124E054FC4F21878901CACFE5
:103F80008C01C8CF2AE0209FF001219FF00D112461
:103F9000E80FF91FE054FC4FC0820E94AA166096F9
:103FA0000FB6F894DEBF0FBECDBFDF91CF911F914A
:103FB0000F91FF90EF90DF90CF9008950F931F9394
:103FC000CF93DF938C010E945A00EC018A30910557
:103FD00034F4009761F4F8018481803341F082E089
:103FE00090E0DF91CF911F910F910C94281B4AE034
:103FF00050E069E071E0CE010E94FC300E94AA16F8
:10400000CE01DF91CF911F910F910C94A202EF92FC
:10401000FF920F931F93CF93DF93EC010E945A00FE
:104020007C0186E0E816F10454F087E090E0DF912F
:10403000CF911F910F91FF90EF900C94281B10923D
:1040400019018E81809316018F81809317018885D5
:104050008093180186E191E00E9482308701000F71
:10406000111F0E0D1F1D00521D4FF80180838A8500
:10407000809316018B85809317018C85809318019E
:1040800086E191E00E948230F80181838E858093E1
:1040900016018F858093170188898093180186E126
:1040A00091E00E948230F8018283DF91CF911F91CD
:1040B0000F91FF90EF900C94AA160F931F93CF933C
:1040C000DF93EC01E0E4F3E08191982F9654923075
:1040D00040F08A3431F08B3421F08C3411F08D347F
:1040E00041F486E090E0DF91CF911F910F910C9405
:1040F000281B83E0E035F80739F78D8180930901AB
:104100008E8180930A0189E091E00E9482308C01C7
:104110000E94D5008885883421F0883611F08133DB
:1041200029F4F801E05CFC4F89EC0AC0F801E05C7E
:10413000FC4F833411F0833611F48AEC01C088EC13
:1041400080838AB188668AB91092B40018BC17BC03
:104150008F81803331F41092B70381EF84BD81E306
:1041600006C081E08093B70381EA84BD81E2809339
:10417000B00083E085BD84E08093B100DF91CF91F2
:104180001F910F910C94AA16EF92FF920F931F9319
:10419000CF93DF9300D000D0CDB7DEB77C010E9473
:1041A0005A008C018031910534F4FC01E05CFC4F35
:1041B00020812F3F19F481E090E023C0F701858131
:1041C00080930C01868180930D01878180930E017D
:1041D000808580930F018185809310018285809373
:1041E00011018CE091E02C830E94A030462F572FC4
:1041F000BC012C81411551056105710529F485E04B
:1042000090E00E94281BACC08091AA039091AB0360
:10421000A091AC03B091AD03840F951FA61FB71FEB
:10422000F801EE0FFF1FEE0FFF1FE050FD4F408122
:10423000518162817381481759076A077B0720F40F
:1042400080839183A283B383822F885C853108F0B9
:1042500050C0283CC9F58091AF03E091B003609154
:104260001301709114019091AE03969FA001979F46
:10427000500D1124F4E056954795FA95E1F75093C7
:10428000B2034093B103869F9001879F300D1124A4
:10429000A4E036952795AA95E1F73093B4032093CF
:1042A000B303E69FC001E79F900D1124B4E09695FB
:1042B0008795BA95E1F79093B6038093B503409341
:1042C000B40028BD87BD4AC02A3C21F481E0809318
:1042D000830344C0243D49F4F801E05BFC4F808136
:1042E000809313011092140139C081E080938203FE
:1042F00035C09E012F5F3F4FAE014E5F5F4FBE0145
:104300006D5F7F4FC8010E9465003A818B818234C6
:1043100039F0833441F0843449F0E0E0F0E008C043
:10432000E5E2F0E005C0E8E2F0E002C0EBE2F0E038
:104330008981208181110AC081E090E0032E01C0B3
:10434000880F0A94EAF78095282307C081E090E05F
:1043500001C0880F3A95EAF7282B20830E94AA16FD
:104360000F900F900F900F90DF91CF911F910F91B1
:10437000FF90EF900895AF92BF92CF92DF92EF92AD
:10438000FF920F931F93CF93DF931F92CDB7DEB7AA
:104390006C0180E380930901D60116968C9180937D
:1043A0000A0189E091E00E948230F82EF6018781AF
:1043B00080930A0189E091E00E948230E82ED601C4
:1043C00015962C91C60129830E945A008C010E94E7
:1043D000D5002981223409F466C0223609F463C06D
:1043E000233409F467C0233609F464C0243409F483
:1043F00068C0243609F048C064C00115110569F48D
:10440000D60113968C911397803339F014968C91C2
:10441000882319F081E090E039C04F2D483038F4FE
:10442000F11008C0D60116968C91803319F084E003
:1044300090E02CC0D5015C9121E030E00F2C01C050
:10444000220F0A94EAF7522B5C93440FD801A05C28
:10445000BC4F490F4C938081E11003C0822B8083B5
:1044600006C02095822380838C918F5F8C930F9060
:10447000DF91CF911F910F91FF90EF90DF90CF9040
:10448000BF90AF900C94AA1682E090E00F90DF915D
:10449000CF911F910F91FF90EF90DF90CF90BF9041
:1044A000AF900C94281B64E2A62EB12CE5E2F0E05C
:1044B00090E10DC057E2A52EB12CE8E2F0E090E2C9
:1044C00006C04AE2A42EB12CEBE2F0E090E300310A
:1044D00011050CF492CF9ECF2F923F924F925F9294
:1044E0006F927F928F929F92AF92BF92CF92DF9204
:1044F000EF92FF920F931F93CF93DF93CDB7DEB769
:104500002C970FB6F894DEBF0FBECDBF6C0188E0CC
:10451000EBE7F2E0DE01119601900D928A95E1F74A
:1045200010928A03F601838180930901848180932C
:104530000A0189E091E00E9482308C01853091056A
:104540001CF080E190E0E9C0F6018581883769F4CC
:104550008CE0809FF001819FF00D1124EC59FB4FFE
:10456000108611861286138611C18F3309F07CC024
:104570008CE0809FF001819FF00D1124EC59FB4FDE
:1045800080809180A280B38063E872E08AE893E043
:104590000E94DA30C501B40120E13EE040E050E085
:1045A0000E941C2F69017A0166E171E0C9010E9435
:1045B000F90666E171E08AE893E00E94DA3061EE84
:1045C00071E08AE893E00E94DA3020E13EE0C29E8A
:1045D000C001C39E900DD29E900D1124A50194019F
:1045E000281B390B41095109CA01B9012CE330E0FC
:1045F00040E050E00E941C2F66E171E0C90129876C
:104600003A874B875C870E94F90666E171E08AE889
:1046100093E00E94DA306AE872E08AE893E00E9450
:10462000DA3066E171E0C6010E94F90666E171E0E8
:104630008AE893E00E94DA3061EE71E08AE893E064
:104640000E94DA3066E171E029853A85C9010E944D
:10465000F90666E171E08AE893E00E94DA308AE8C0
:1046600093E00E94520E94C0D6011D96FE01319631
:10467000CE0108962D912193E817F907D9F742E06A
:1046800050E060E070E0CE0101960E946B2F2B019C
:104690003C01F601858180930901868180930A019E
:1046A00089E091E00E9482307C01F601878180934D
:1046B0000901808580930A0189E091E00E9482309F
:1046C0004C01F601818580930901828580930A015E
:1046D00089E091E00E9482301C01F601838580937D
:1046E0000901848580930A0189E091E00E9482306B
:1046F000F8E1EF16F10420F428E12216310418F055
:1047000089E090E00AC0F401EC33F10520F4AC013B
:104710008C33910528F08AE090E00E94281B38C075
:104720009701A0E1BEE00E94A42E6B017C019101E3
:104730000E94A42E2CE0209FD001219FB00D1124B7
:10474000AC59BB4F2CE3289D8001299D100D1124ED
:10475000C00ED11EE11CF11CCD92DD92ED92FC92B7
:104760001397249FF001259FF00D11246E0F7F1FDA
:10477000811D911D14966D937D938D939C93179736
:1047800018964D925D926D927C921B970E94AA168C
:104790002C960FB6F894DEBF0FBECDBFDF91CF9140
:1047A0001F910F91FF90EF90DF90CF90BF90AF904F
:1047B0009F908F907F906F905F904F903F902F9041
:1047C0000895AF92BF92CF92DF92EF92FF920F9334
:1047D0001F93CF93DF93EC01E1ECF3E000E010E0F6
:1047E000DF0111978C918F3F21F480818F3F09F475
:1047F0006BC00F5F1F4F3A960A30110589F756C0FC
:10480000E114F10431F420E3A21619F089E090E0FC
:104810004FC02CE3C216D10434F4C114D10431F4D6
:1048200020E3B21619F08AE090E042C0009719F434
:104830008BE090E03DC06CE3689FA001699F500D44
:1048400011246E9D90016F9D300D11242C0D3D1D86
:104850008AE0809FF001819FF00D1124E054FC4F0D
:104860003183228353835527448310928A0360E95E
:1048700072E08AE893E00E94DA3069E071E0C801F2
:104880000E94F90669E071E08AE893E00E94DA305C
:104890008AE893E0DF91CF911F910F91FF90EF9005
:1048A000DF90CF90BF90AF900C94520E88E090E0D4
:1048B000DF91CF911F910F91FF90EF90DF90CF90FC
:1048C000BF90AF900C94281BC8010E94A2028B815C
:1048D00080930901AC80A0920A0189E091E00E94D6
:1048E00082307C018D8180930901BE80B0920A01E3
:1048F00089E091E00E9482306C018F8180931601E3
:104900008885809317018985809318018A85809313
:10491000190186E191E00E94823028E1E216F1045B
:104920000CF46ECF73CFFF920F931F93CF93DF934F
:104930008C010E945A00EC01803191054CF081E01D
:1049400090E0DF91CF911F910F91FF900C94281B65
:10495000F801858180930901868180930A0189E0AD
:1049600091E00E948230F82E8E01005B1C4F811175
:1049700020C04AE050E069E071E0F801808190E0F9
:104980000E94FC3010928A036AE672E08AE893E0A3
:104990000E94DA3069E071E08AE893E00E94DA3040
:1049A0008AE893E0DF91CF911F910F91FF900C94D3
:1049B000520ECE010E94D500C05CDC4F84ED88838E
:1049C0008F2D813108F080E1F8018083DF91CF9154
:1049D0001F910F91FF900C94AA16AF92BF92CF92A5
:1049E000DF92EF92FF920F931F938AE00E94F528C7
:1049F000A0902C04B0902D04C0902E04D0902F04D1
:104A0000E0903004F09031040091320410913304AE
:104A10000E94562F31F081E0809300012FEF3FEF8D
:104A200009C0809100018150823010F40E944D0E27
:104A300021E030E0C9011F910F91FF90EF90DF90CE
:104A4000CF90BF90AF9008950F931F930E944D2B6E
:104A500092E090932C0480EF80932D0480932E0499
:104A600080932F048093300410923104109232040A
:104A70001092330490932404809325048093260499
:104A800080932704809328041092290410922A040A
:104A900010922B048BE00E94F5282093340430936D
:104AA0003504409336045093370460933804709370
:104AB000390480933A0490933B048CE00E94F528DB
:104AC00020933C0430933D0440933E0450933F04B4
:104AD0006093400470934104809342049093430494
:104AE0008DE00E94F52820934404309345044093C0
:104AF000460450934704609348047093490480939C
:104B00004A0490934B048EE00E94F52820934C04B5
:104B100030934D0440934E0450934F0460935004DF
:104B20007093510480935204909353048FE00E9439
:104B3000F528209354043093550440935604509321
:104B40005704609358047093590480935A049093C7
:104B50005B0466E086E00E94B82800912C04109166
:104B60002D0420912E0430912F0440913004509157
:104B7000310460913204709133048AE00E94472925
:104B800000912404109125042091260430912704DB
:104B9000409128045091290460912A0470912B04BB
:104BA00080E10E9447296FE38CE10E94B82864E00D
:104BB0008DE10E94B8286AE285E00E94B82868E08A
:104BC00080E00E94B8286FE084E00E94B8280E942C
:104BD000ED241F910F910C94ED286F927F928F928C
:104BE0009F92AF92BF92CF92DF92EF92FF920F937C
:104BF0001F93CF93DF93EC0180E3809316018093A2
:104C000017018B81809318018C818093190186E1B3
:104C100091E00E9482306C019093FD028093FC022F
:104C20008D81809318018E818093190186E191E036
:104C30000E9482308C019093FB028093FA028B8554
:104C4000809318018C858093190186E191E00E9480
:104C500082304C018093F8029092F9028D85809306
:104C600018018E858093190186E191E00E948230BF
:104C70005C018093F602B092F7028F858093180151
:104C800088898093190186E191E00E9482303C017D
:104C90009093F5028093F4028F81809316018885AA
:104CA000809317018985809318018A858093190163
:104CB00086E191E00E9482309093FF028093FE0291
:104CC000A801B6010E94E103DC018093F202B093D7
:104CD000F30220E831E541E050E00E94B72E6B017D
:104CE0007C019401A0E1BEE00E94A42EC60ED71E56
:104CF000E81EF91EC60CD71CE11CF11C9501ACE3A3
:104D0000B0E00E94A42EC60ED71EE81EF91EC09267
:104D1000AA03D092AB03E092AC03F092AD030E94E1
:104D200017078AE893E00E94520E0E94DB030E945C
:104D3000CF031092010180910001833081F4DF9153
:104D4000CF911F910F91FF90EF90DF90CF90BF9088
:104D5000AF909F908F907F906F900C944D0EDF914D
:104D6000CF911F910F91FF90EF90DF90CF90BF9068
:104D7000AF909F908F907F906F900895FC0120815D
:104D8000213610F020522083FC012181213610F0C1
:104D900020522183FC01308120E04181242B2934E1
:104DA000F0E53F0709F4D8C00CF060C02934E4E412
:104DB0003E0709F4E3C054F5283443E4340709F40A
:104DC000BBC07CF42335F2E43F0709F4E5C023348B
:104DD00043E4340709F4DCC02934314409F0E8C065
:104DE000CBC02C34F3E43F0709F4C0C02CF42934C1
:104DF000334409F0DDC0C4C02035F3E43F0709F4B3
:104E0000A3C02435334409F0D3C0BCC02035E9E445
:104E10003E0709F4C9C0ACF4293447E4340709F467
:104E2000BDC02CF42335344409F0C2C079C0233509
:104E300047E4340709F4AAC02436384409F0B8C05E
:104E40007DC02335FEE43F0709F46EC02CF4203505
:104E50003E4409F0ADC076C02134F0E53F0709F4C7
:104E600075C02434304509F0A3C072C02234E3E594
:104E70003E0709F48FC054F5263540E5340709F4A0
:104E80005FC07CF42335F0E53F0709F453C02435B7
:104E900040E5340709F45EC02035304509F088C08C
:104EA0007FC02334E2E53E0709F464C02CF42735C3
:104EB000304509F07DC068C02434E2E53E0709F4BE
:104EC00057C02134334509F073C04EC0203543E547
:104ED000340709F445C074F42434F3E53F0741F185
:104EE0002CF12534E3E53E07E9F12F34334509F091
:104EF0005FC05CC0273543E5340709F453C02CF488
:104F00002335334509F054C029C0293444E534071A
:104F100029F02C34344509F04BC004C00C94ED2525
:104F20000C94ED160C946C220C94BB210C948A1AF0
:104F30000C9443160C945D200C94701A0C945C1A1B
:104F40000C94111A0C94E1230C94DE1F0C940F1F87
:104F50000C948E1E0C94E61D0C94ED130C94C4203E
:104F60000C94A91D0C94800E0C94B6170C94361753
:104F70000C9467100C94DF0E0C94481C0C94441B8A
:104F80000C94AE160C94901A0C9458150C9426138D
:104F90000C9407200C9493240C94D91A0C94291285
:104FA0000C94F3110C94C1110C948E110C945711A4
:104FB00008951F920F920FB60F9211242F933F93D3
:104FC0004F935F936F937F938F939F93AF93BF9311
:104FD000EF93FF9340919604509197044F5F5F4F7A
:104FE000509397044093960460E070E080911F0115
:104FF00090912001A0912101B091220148175907F9
:105000006A077B070CF455C010929704109296041F
:105010002091F4023091F5022F5F3F4F3093F5025B
:105020002093F4028091AA039091AB03A091AC036A
:10503000B091AD030196A11DB11D8093AA03909379
:10504000AB03A093AC03B093AD0341E04093800366
:105050002C33310571F58091F6029091F70201969B
:105060009093F7028093F6021092F5021092F402E8
:1050700040938503CC97E9F48091F8029091F9026E
:1050800001969093F9028093F8021092F702109221
:10509000F602039711F40E945E048091F802909149
:1050A000F902489731F41092F9021092F8020E9426
:1050B000A004809196049091970468E176E00E94A4
:1050C000D22E892B19F481E080938403FF91EF9114
:1050D000BF91AF919F918F917F916F915F914F9110
:1050E0003F912F910F900FBE0F901F90189524980D
:1050F00084B18C6284B980E58CBD2A9A08952A987F
:10510000EFE9FFE03197F1F700C000009B01FC01DF
:10511000DB0150E007C081918EBD0DB407FEFDCFCD
:105120008EB58D93CD01821B930B841795079CF34D
:105130002A9A0895299A089529980895CF93DF937C
:1051400000D000D0CDB7DEB78F7189838FEF8A830F
:1051500042E0BE016D5F7F4FCE0101960E947F2825
:105160008C810F900F900F900F90DF91CF91089549
:10517000CF93DF9300D000D0CDB7DEB78F718062C0
:1051800089836A8342E0BE016D5F7F4FCE01019645
:105190000E947F280F900F900F900F90DF91CF917A
:1051A00008950E949C2880E00E949E28682F6E7FB0
:1051B00080E00C94B8280E949A2880E00E949E28E3
:1051C000682F616080E00C94B82880E00E949E28DF
:1051D000682F6D7F80E00C94B82880E00E949E28A4
:1051E000682F626080E00C94B8280F931F93CF93D0
:1051F000DF93CDB7DEB72C970FB6F894DEBF0FBEA6
:10520000CDBF182F1F7119839FEF9A839B839C83B7
:105210009D839E83812F8C50843078F48BE089832A
:1052200046E0BE01695F7F4FCE0101960E947F2854
:10523000812F0E949E28888708C046E0BE01695FD2
:105240007F4FCE0101960E947F28FE013D96DE0130
:10525000199610E030E040E050E060E070E080E05F
:1052600090E02291212B08E00E94382F122FEA179C
:10527000FB07B9F72885212B2C960FB6F894DEBFD3
:105280000FBECDBFDF91CF911F910F910895DF9297
:10529000EF92FF920F931F93CF93DF93CDB7DEB7BB
:1052A0002C970FB6F894DEBF0FBECDBFE02FD22EE5
:1052B000E32EF42EB52FA62FF72F982F9A50923069
:1052C00010F08031E9F58F7180628983EA832E2F97
:1052D000312F4D2D5E2D6F2D7B2F8A2F9F2F08E0B4
:1052E0000E94472F2B832E2F312F4D2D5E2D6F2D9A
:1052F0007B2F8A2F9F2F00E10E94472F2C832E2F78
:10530000312F4D2D5E2D6F2D7B2F8A2F9F2F08E182
:105310000E94472F2D832E2F312F4D2D5E2D6F2D67
:105320007B2F8A2F9F2F00E20E94472F2E8346E07B
:10533000BE01695F7F4FCE0101960E947F2803C0A6
:10534000602F0E94B8282C960FB6F894DEBF0FBECF
:10535000CDBFDF91CF911F910F91FF90EF90DF9024
:105360000895CF93DF9300D000D0CDB7DEB780E6AD
:105370008B838FEF8C8342E0BE016F5F7F4FCE0146
:1053800003960E947F288A81813258F082EE8B83B7
:1053900041E0BE016F5F7F4FCE0103960E947F28E0
:1053A00080E00F900F900F900F90DF91CF910895B4
:1053B00087E00E949E28982F9E7081E009F080E08F
:1053C00008959F92AF92BF92CF92DF92EF92FF9299
:1053D0000F931F93CF93DF93CDB7DEB77C01ADB6AC
:1053E000BEB60E94D829811102C0912C57C08FED02
:1053F0009EE20197F1F700C000000E94B129982EAB
:10540000882399F3082F10E098012F5F3F4F8DB745
:105410009EB7821B930B0FB6F8949EBF0FBE8DBF35
:10542000EDB7FEB73196821B930B0FB6F8949EBF73
:105430000FBE8DBFCDB6DEB68FEFC81AD80A81E693
:10544000808320E030E08FEF06C02F5F3F4FDF0109
:10545000A20FB31F8C9320173107BCF3492D4F5F68
:10546000B601CF010E947F28F70120E030E007C09D
:105470002F5F3F4FD601A20FB31F8C91819320174E
:105480003107B4F387E00E949E28682F606487E0AC
:105490000E94B828F701E90DF11D1082892D0FB681
:1054A000F894BEBE0FBEADBEDF91CF911F910F919C
:1054B000FF90EF90DF90CF90BF90AF909F900895B6
:1054C000CF92DF92EF92FF920F931F93CF93DF93D0
:1054D000CDB7DEB7C254D1090FB6F894DEBF0FBE08
:1054E000CDBF6C010E94D829882309F181E68AA3E7
:1054F0008E010D5D1F4F7E0183E4E80EF11CF80163
:105500008FEF8193EE15FF05E1F741E2BE016F5F7A
:105510007F4FCE0182960E947F28F601D8018D919F
:105520008D018193AE15BF05C9F781E001C080E010
:10553000CE5BDF4F0FB6F894DEBF0FBECDBFDF915D
:10554000CF911F910F91FF90EF90DF90CF90089532
:10555000CF92DF92EF92FF920F931F93CF93DF933F
:1055600000D0CDB7DEB7462FEDB6FEB6062F10E061
:1055700098012F5F3F4F6DB77EB7621B730B0FB65D
:10558000F8947EBF0FBE6DBFADB7BEB71196EDB735
:10559000FEB7E21BF30B0FB6F894FEBF0FBEEDBFD4
:1055A0002DB73EB72F5F3F4FB90121EE2A8320EA86
:1055B0002C936C0120E030E00AC02F5F3F4FF601D2
:1055C00051916F01CD01820F931FFC015083201771
:1055D00031079CF34F5FCD010E947F280E949A28DB
:1055E00004E610E08FE39FE10197F1F700C00000AF
:1055F00087E00E949E28682F85FF0DC087E00E94EB
:10560000B8280E949C28EFE3FFE13197F1F700C032
:10561000000081E014C084FF04C087E00E94B82825
:1056200003C001501109F1F641E0BE016F5F7F4FE9
:10563000CE0102960E947F280E949C2880E00FB62F
:10564000F894FEBE0FBEEDBE0F900F90DF91CF918C
:105650001F910F91FF90EF90DF90CF900895CF931F
:10566000DF9300D0CDB7DEB781EE8A8341E0BE0183
:105670006F5F7F4FCE0102960E947F2882EE8A8361
:1056800041E0BE016F5F7F4FCE0102960E947F28EE
:105690000F900F90DF91CF9108950E947728219A63
:1056A000229A0C942F2BCF93DF93CDB7DEB7A79719
:1056B0000FB6F894DEBF0FBECDBF1092A4021092B9
:1056C000C202529A84E090E05A9A2FEF30E742E00B
:1056D000215030404040E1F700C000005A985FEF91
:1056E000A1EEB4E05150A040B040E1F700C000008E
:1056F000019751F75A9AE2EEF2E081E0DF0112974A
:105700001C92DF0111978C931082339622E0E43FC4
:10571000F207A1F71092F3021092F2021092F50232
:105720001092F4021092F7021092F6021092F9020F
:105730001092F8021092FB021092FA021092FD02EF
:105740001092FC021092FF021092FE02E0E0F3E0E1
:1057500080E493E060E573E04FEF30E11192119245
:10576000119211922FEFDC014D93CD01DB013D939E
:10577000BD01B3E0E034FB0789F720936003209379
:1057800068032093700320937803789400E010E07E
:10579000C8010E94A2020F5F1F4F0A301105C1F716
:1057A0000E94C2030E9424250E94DB280E94010857
:1057B0000E94CF03198287E0ECE7F2E0DE019196C8
:1057C00001900D928A95E1F780918003813031F448
:1057D000109280030E9446050E94DD0D8091810396
:1057E000813021F4109281030E94FA058091820396
:1057F000813011F40E94B00110918303113011F433
:105800000E94380180918403813069F410928403EE
:105810000E94BE0D8091000181110E940E0E113078
:1058200011F40E94380180918503813061F4109257
:10583000850380910101813021F48AE992E00E9480
:1058400026130E94ED2482EC92E00E94E129082FA9
:1058500010E0033011050CF4B7CF2FEF34E644E02D
:10586000215030404040E1F700C000008091C2026A
:105870008A3759F5E3ECF2E0DE01919681918D9340
:1058800052E0E93CF507D1F762E071E0CE01819684
:105890000E94E530009789F4E9ECF2E0DE01119610
:1058A00002C081918D93CF01825C92408017910755
:1058B000C4F3CE0101960E94BE26E2ECF2E084EA37
:1058C00092E0AE014F5F5F4F2FC08236B1F7E3EC3D
:1058D000F2E0DE01119681918D93CF01825C9240BE
:1058E00080179107C4F342E050E06EE972E0CE0108
:1058F00001960E94EE30009751F042E050E061EADC
:1059000072E0CE0101960E94EE30009791F68091F0
:10591000860390918703A0918803B0918903892B16
:105920008A2B8B2B51F6C5CF1192DC011D92CD0134
:10593000DA011D92AD01B2E0E03EFB07A9F744CFCA
:1059400020FD09C0FC0123FD05C022FF02C07383B6
:105950006283518340830895CF92DF92EF92FF924A
:105960000F931F9344FD10C046FD10C0DB01FC01E6
:10597000AA0FBB1FEE1FFF1F1094D1F76A0F7B1FEA
:105980008E1F9F1F31E003C033E001C034E0660F7B
:10599000771F881F991F3150D1F76B017C01C20E10
:1059A000D11CE11CF11C97018601B601C9011F91B0
:1059B0000F91FF90EF90DF90CF9008950F931F937A
:1059C000CF93DF938C01C8010E946E31EC0197FDEB
:1059D00008C00E94C730892BB1F7B801CE010E94E0
:1059E000AE31CE01DF91CF911F910F9108958F922B
:1059F0009F92AF92CF92DF92EF92FF920F931F93FD
:105A0000CF93DF93EC01A62E4A01022F0E946E3144
:105A1000FC01FF27EB32F10519F0BD9751F4006846
:105A2000AA9411F480E063C0CE010E946E3197FD0C
:105A3000F9CF102F1D7F302F3073E1F48033D1F474
:105A4000AA9409F440C0CE010E946E3197FD3BC07C
:105A5000883711F0883549F41264AA94A1F1CE0177
:105A60000E946E3197FF06C02EC006FF02C0126072
:105A700001C01261C12CD12C7601282F205328306F
:105A800080F014FF04C0BE010E94AE3119C02A305C
:105A900040F016FFF8CF2F7D322F3151363098F776
:105AA0002750412FC701B6010E94AC2C6B017C012D
:105AB0001260AA9459F0CE010E946E3197FFDDCF9B
:105AC00011FD04C0AFCFC12CD12C760117FF08C047
:105AD000F094E094D094C094C11CD11CE11CF11C42
