:100000000C943A000C9457000C9457000C94570031
:100010000C9457000C9457000C9457000C94570004
:100020000C9457000C9457000C9457000C9415270F
:100030000C9457000C9457000C9457000C945700E4
:100040000C9457000C9457000C9457000C945700D4
:100050000C9457000C9457000C9457000C945700C4
:100060000C9457000C9457006364696E6F7073753D
:100070007858000011241FBECFEFD8E0DEBFCDBFFF
:1000800012E0A0E0B1E0EEE1F3E602C005900D92CF
:10009000A23AB107D9F714E0A2EAB2E001C01D927A
:1000A000A839B107E1F70E948F2A0C948D310C9486
:1000B00000000895FC01238120930901848180932D
:1000C0000A0189E091E00C94BE2FFB01825C9C4FF9
:1000D000DC018C91982F9051903118F482E4808348
:1000E0003EC0803120F491E49083982F38C0803353
:1000F00028F493E49083982F905231C0803428F4F0
:1001000094E49083982F90532AC0803528F495E486
:100110009083982F905423C0803628F496E49083DF
:10012000982F90551CC0803728F497E49083982F1F
:10013000905615C087FD05C098E49083982F90577E
:100140000EC0803928F499E49083982F905807C006
:100150008FE38083FA011082D9011C920895892FC0
:100160008695FA0180839170D9019C930895825CF1
:100170009C4FFC018081843D39F48091150180936E
:10018000130110921401089514BC15BC1092B00014
:100190001092B1001092B40018BC17BC8AB18AB991
:1001A00010928003109281030895EF92FF920F93B3
:1001B0001F93CF93DF9300D01F92CDB7DEB78C0192
:1001C0001B821A8219828EE3E82E83E0F82EE00E5D
:1001D000F11EF7018081885C853130F4C8010E94EE
:1001E000B7008FEFF70139C09E012F5F3F4FAE017F
:1001F0004E5F5F4FBE016D5F7F4FC8010E9465007B
:100200008B81823449F0833461F0843479F0A0E04A
:10021000B0E0E0E0F0E00EC0A4E2B0E0E5E2F0E043
:1002200009C0A7E2B0E0E8E2F0E004C0AAE2B0E072
:10023000EBE2F0E02C9181E090E00A8002C0880FB0
:10024000991F0A94E2F7809528232C939081982394
:100250009083F801E25CFC4F8FEF80830F900F904A
:100260000F90DF91CF911F910F91FF90EF90089524
:100270008091B6039091B70301969093B703809352
:10028000B60320911B0130911C018217930708F4DB
:1002900066C01092B7031092B6038091B8038F5FC7
:1002A000863019F08093B80302C01092B8032091F1
:1002B000B803822F90E0FC01EE0FFF1FE80FF91F3B
:1002C000E252FD4F808181110BC08181813041F468
:1002D0008281811105C0222309F441C01092B80324
:1002E0008091B80390E0FC01EE0FFF1FE80FF91FAB
:1002F000E252FD4F8181A28160911301709114013E
:100300009081969FA001979F500D112434E056953F
:1003100047953A95E1F75093B0034093AF03869F1A
:100320009001879F300D112454E0369527955A95FA
:10033000E1F73093B2032093B103A69FC001A79FBA
:10034000900D112464E0969587956A95E1F7909356
:10035000B4038093B3034093B40028BD87BD0895D0
:100360008091B9038F5F8093B903823009F0E9C0AF
:100370001092B9038091BA039091BB0301969093B8
:10038000BB038093BA0320911D0130911E01821797
:10039000930708F4D6C01092BB031092BA03809161
:1003A000BC039091BD038F3F910538F42FEF30E0EF
:1003B0003093B0032093AF030EC08F3F21E092072C
:1003C00098F42EEF31E0281B390B3093B0032093C3
:1003D000AF038FEF90E09093B2038093B10310923C
:1003E000B4031092B30360C08F3F22E0920768F419
:1003F0001092B0031092AF032FEF30E03093B203AE
:100400002093B1038F5F914012C08F3F23E092078A
:1004100098F41092B0031092AF032EEF33E0281B34
:10042000390B3093B2032093B1038FEF90E0909398
:10043000B4038093B30338C08F3F24E0920758F48D
:100440008F5F93409093B0038093AF031092B203F9
:100450001092B103EACF8F3F25E0920798F42FEF77
:1004600030E03093B0032093AF031092B2031092A8
:10047000B1032EEF35E0281B390B3093B4032093E2
:10048000B30312C08FEF90E09093B0038093AF035B
:100490001092B2031092B1031092B4031092B303FE
:1004A0001092BD031092BC0360911301709114016E
:1004B0008091AF039091B003689FA001699F500D98
:1004C000789F500D1124E4E056954795EA95E1F7A1
:1004D0005093B0034093AF038091B1039091B20366
:1004E000689F9001699F300D789F300D1124F4E0D2
:1004F00036952795FA95E1F73093B2032093B1032F
:10050000E091B303F091B4036E9FC0016F9F900D13
:100510007E9F900D1124A4E096958795AA95E1F70A
:100520009093B4038093B3034093B40028BD87BD78
:100530008091BC039091BD0301969093BD0380937D
:10054000BC0308952AE0AC01249FC001259F900DB3
:10055000112482549C4F20E030E04FEFFC01E20F69
:10056000F31F40832F5F3F4F2A303105B9F70895BD
:100570002AE0AC01249FC001259F900D11248254D4
:100580009C4F25E030E0FC01E20FF31F40814F3F1C
:1005900039F02F5F3F4F29303105A9F720E030E0D7
:1005A000C9010895CF93DF9320E030E0CAE0F9015C
:1005B0003496C89FA001C99F500D1124421B530BB4
:1005C00042545C4FDA01A20FB31F1596DC91DF3F56
:1005D000A9F0DB01A20FB31FDC932F5F3F4F2E1753
:1005E0003F0781F7C89FF001C99FF00D1124E25425
:1005F000FC4F81858F3F11F090E0D9CFC901DF9189
:10060000CF9108958F929F92AF92BF92CF92DF9237
:10061000EF92FF921F93CF93DF93CDB7DEB764972E
:100620000FB6F894DEBF0FBECDBF4B01611571054B
:1006300051F46AE0689FF001699FF00D1124E254C3
:10064000FC4F8480912CBE016F5F7F4F298B3A8BCA
:100650004B8B5C8B0E94D202AA2497FCA094BA2CEC
:10066000C090A803D090A903E090AA03F090AB0338
:1006700029893A894B895C89211531054105510544
:1006800031F4A50194012C0D3D1D4E1D5F1DC80CBC
:10069000D91CEA1CFB1CFE013196BF0116C0A191BA
:1006A00014E0A19FD0011124A250BD4F8D909D90C8
:1006B000AD90BC9013978C149D04AE04BF0428F435
:1006C0002D933D934D935C931397DF01A61BB70BBE
:1006D000A817B90724F381E080937F0364960FB6CF
:1006E000F894DEBF0FBECDBFDF91CF911F91FF9079
:1006F000EF90DF90CF90BF90AF909F908F90089534
:10070000EF92FF920F931F93CF93DF937C01EB0146
:100710008A01FC0120E030E011922F5F3F4F2E3024
:100720003105D1F7CE010E9415318735944461F42B
:10073000A80142505109BE016E5F7F4FC7010E9460
:10074000053121E030E002C020E030E0C901DF9156
:10075000CF911F910F91FF90EF900895CF93DF936A
:10076000EB01425051096E5F7F4F0E941B3167E5DC
:1007700074E4CE01DF91CF910C943D3160E070E0E4
:100780000C943D311092800088E08093810010929B
:1007900089001092880082E080936F0008958FEFA7
:1007A0009FEF9093850080938400E1E8F0E08081E2
:1007B000856080830895E1E8F0E080818A7F80830E
:1007C0000895CF93DF93FB01EA018EE090E0861B52
:1007D000970B6CE070E00E94222E2091FC02309179
:1007E000FD02261B370B8CE0869FA001879F500DD2
:1007F00011244E0F5F1F425051096DE0649FC001EC
:10080000659F900D1124019765E070E00E94222EF3
:10081000C60FD71FC20FD31FF90137FD3396F595C9
:10082000E795F595E795EC0FFD1FC9016CE97FEFA2
:100830000E94222EE60FF71FC90160E971E00E94B5
:10084000222EE60FF71FCF0167E070E00E94222EF4
:10085000DF91CF910895CF93DF93CDB7DEB768973F
:100860000FB6F894DEBF0FBECDBF28E1E3E2F1E0A2
:10087000DE01119601900D922A95E1F78370992778
:10088000892B21F48DE190E098878F83FE013196CA
:100890009A0180E090E005C041915191240F351FED
:1008A000019686179707C4F3C90168960FB6F894A6
:1008B000DEBF0FBECDBFDF91CF910895809192042E
:1008C0008130E9F18091FA029091FB0220915A0463
:1008D00030915B0482179307A1F44091F802509184
:1008E000F90220915C0430915D044217530749F4EA
:1008F00081E0809392048091F6029091F702019634
:100900001AC020915E0430915F0482179307B9F4F6
:100910002091F8023091F902809160049091610475
:100920002817390761F481E0809392048091F602E0
:100930009091F70201979093F7028093F602089541
:10094000109292048091F0029091F102019690939E
:10095000F1028093F002079771F02091F802309134
:10096000F9022F5F3F4F3093F9022093F8022D31A7
:10097000310540F508951092F1021092F0021092A4
:10098000A8031092A9031092AA031092AB03EEEFF2
:10099000F2E080819181A281B38180382AE39207BD
:1009A00029E0A207B10540F080589A43A940B10957
:1009B00080839183A283B383349683E0EE33F80778
:1009C00041F7CBCF8091FA029091FB0286309105DE
:1009D000F9F098F483309105F9F038F481309105FD
:1009E000D9F0029709F051C039C08430910581F0E7
:1009F0008530910509F049C00FC08930910541F05B
:100A000058F08B30910521F038F00C97F1F50FC0BC
:100A10002F313105D0F103C020323105B0F121E092
:100A200030E03093F9022093F80201962AC0203278
:100A3000310558F181E090E09093F9028093F8023B
:100A40009093FB028093FA028091FC029091FD0248
:100A500001969093FD028093FC0208958091FC0220
:100A60009091FD0283709927892B19F42D3131055E
:100A700061F081E090E09093F9028093F80283E0C6
:100A800090E09093FB028093FA0208956F927F9218
:100A90008F929F92AF92BF92CF92DF92EF92FF928E
:100AA0000F931F93CF93DF934091A8035091A90315
:100AB0006091AA037091AB0320917F03EEEFF2E007
:100AC00080819181A281B3810097A105B10551F088
:100AD00084179507A607B70728F41082118212829F
:100AE000138221E0349683E0EE33F80749F7209330
:100AF0007F03C2ECD3E000E010E030E4C32ED12C41
:100B0000FE01349780818F3F09F45EC0FE01339768
:100B100020812F3F09F458C07090F0026090F102DC
:100B200090E0A601072C02C0559547950A94E2F77C
:100B300084239523892B09F447C0822F90E0A0E0FD
:100B4000B0E02227382F492F5A2FFE01329780819B
:100B5000282BACE3B0E00E94F32D4B015C01FE01B9
:100B60003197F081E881A72DB62D20E831E541E0ED
:100B700050E00E94F32D860E971EA81EB91E4091CC
:100B8000A8035091A9036091AA037091AB03481583
:100B900059056A057B05C0F0FF2EE12CC7018E2B9D
:100BA000AA2797FDA095BA2F880D991DAA1DBB1DD8
:100BB000481759076A077B0738F4A501940160E0DC
:100BC00070E0C8010E9402030F5F1F4F2A960A308F
:100BD000110509F095CFDF91CF911F910F91FF90F3
:100BE000EF90DF90CF90BF90AF909F908F907F90CD
:100BF0006F9008957F928F929F92AF92BF92CF9203
:100C0000DF92EF92FF920F931F93CF93DF9300D069
:100C10001F92CDB7DEB71EE3812E13E0912E0EEFAB
:100C2000C02E02E0D02E00E010E0E12CF12CAA242E
:100C3000A394B12C77247394F40121914F012F3F99
:100C400009F4BBC0822F885C853108F076C0F601BC
:100C500080819181A281B381892B8A2B8B2BF9F41E
:100C6000283C29F41092B40018BC17BCA6C0293C3B
:100C700039F41092B40018BC17BC109280039DC0C8
:100C80002A3C39F41092B40018BC17BC10928103AE
:100C900094C0243D09F091C08091150146C0283CC4
:100CA000C9F58091AD03E091AE036091130170919D
:100CB00014019091AC03969FA001979F500D1124B1
:100CC000F4E056954795FA95E1F75093B0034093B9
:100CD000AF03869F9001879F300D1124A4E03695C5
:100CE0002795AA95E1F73093B2032093B103E69FCD
:100CF000C001E79F900D1124B4E096958795BA95B1
:100D0000E1F79093B4038093B3034093B40028BDFC
:100D100087BD53C02A3C19F4709281034EC0243D14
:100D200049F4F701E25BFC4F80818093130110923C
:100D3000140143C07092800340C09E012F5F3F4F5B
:100D4000AE014E5F5F4FBE016D5F7F4FC7010E94D6
:100D500065002A818B81823429F0833431F0843418
:100D600049F406C005E210E005C008E210E002C048
:100D70000BE210E0F60180819181A281B38139817B
:100D8000F801892B8A2B8B2B19F4311103C00CC06D
:100D900031110AC03081C501022E01C0880F0A94AA
:100DA000EAF78095382308C03081C501022E01C0C2
:100DB000880F0A94EAF7382B3083FFEFEF1AFF0A07
:100DC00084E0C80ED11CE0E1EE16F10409F034CF46
:100DD0000F900F900F90DF91CF911F910F91FF9087
:100DE000EF90DF90CF90BF90AF909F908F907F90CB
:100DF0000895CF93DF93EB0118824AE050E06CE056
:100E000071E00E943830ECE0F1E001900020E9F759
:100E1000EE50F14029F46FE772E0CE010E941630E7
:100E20006CE071E0CE01DF91CF910C9416301092FE
:100E3000880363E472E088E893E00E94163069E07A
:100E400071E08091FA029091FB020E94F90669E03C
:100E500071E088E893E00E9416306BE371E088E867
:100E600093E00E94163069E071E08091F802909161
:100E7000F9020E94F90669E071E088E893E00E94B7
:100E800016306BE371E088E893E00E9416304AE088
:100E900050E069E071E08091FC029091FD020E94B7
:100EA000383069E071E088E893E00E94163063E42E
:100EB00072E088E893E00E94163069E071E080916A
:100EC000F6029091F7020E94F90669E071E088E865
:100ED00093E00E94163069EC71E088E893E00E948C
:100EE000163069E071E08091F4029091F5020E9461
:100EF000F90669E071E088E893E00E94163069EC39
:100F000071E088E893E00E94163069E071E080911A
:100F1000F2029091F3020E94F90669E071E088E81C
:100F200093E00C9416300F931F93CF93DF938C01B3
:100F3000EB01188265E471E0CE010E94163040E1B9
:100F400050E06CE071E0C8010E943830ECE0F1E064
:100F500001900020E9F73197EC50F140E130F105C4
:100F600011F0339729F46FE772E0CE010E9416303A
:100F70006CE071E0CE01DF91CF911F910F910C9445
:100F80001630CF93DF93EB01188240E150E06CE024
:100F900071E00E943830ECE0F1E001900020E9F7C8
:100FA0003197EC50F140E130F10511F0339729F41D
:100FB0006FE772E0CE010E9416306CE071E0CE0166
:100FC000DF91CF910C941630AF92BF92CF92DF9207
:100FD000EF92FF920F931F938AE00E943128A09016
:100FE0002A04B0902B04C0902C04D0902D04E090E3
:100FF0002E04F0902F0400913004109131040E94CF
:10100000922E31F081E0809300012FEF3FEF02C07C
:1010100020E030E0C9011F910F91FF90EF90DF9029
:10102000CF90BF90AF9008950F931F930E94892A8D
:1010300092E090932A0480EF80932B0480932C04F9
:1010400080932D0480932E0410922F04109230046C
:1010500010923104909322048093230480932404FB
:10106000809325048093260410922704109228046C
:10107000109229048BE00E9431282093320430938F
:1010800033044093340450933504609336047093D2
:10109000370480933804909339048CE00E943128FF
:1010A00020933A0430933B0440933C0450933D0416
:1010B00060933E0470933F048093400490934104F6
:1010C0008DE00E94312820934204309343044093E2
:1010D00044045093450460934604709347048093FE
:1010E0004804909349048EE00E94312820934A04DA
:1010F00030934B0440934C0450934D0460934E0442
:1011000070934F0480935004909351048FE00E9499
:101110003128209352043093530440935404509345
:101120005504609356047093570480935804909329
:10113000590466E086E00E94F42700912A04109189
:101140002B0420912C0430912D0440912E045091B9
:101150002F0460913004709131048AE00E9483284A
:10116000009122041091230420912404309125043D
:10117000409126045091270460912804709129041D
:1011800080E10E9483286FE38CE10E94F42764E0F1
:101190008DE10E94F4276AE285E00E94F42768E06E
:1011A00080E00E94F4276FE084E00E94F4270E9410
:1011B000E4071F910F910C9429280F93CF93DC0122
:1011C00020E030E040E050E060E070E080E090E05F
:1011D000E0E0F0E0CD91C22B2C2FE430F10519F0C6
:1011E00008E00E94742E3196E530F10599F7CF9111
:1011F0000F910895EF92FF920F931F93CF93DF9378
:10120000CDB7DEB72E970FB6F894DEBF0FBECDBFB9
:1012100047E050E06EE070E0CE0101960E9480034E
:101220000197D9F4CE0101960E94DD082093220493
:1012300030932304409324045093250460932604A0
:1012400070932704809328049093290489019A01BC
:10125000AB01BC0180E10E94832847E050E065E1DA
:1012600070E0CE0101960E9480030197D9F4CE016F
:1012700001960E94DD0820932A0430932B044093AA
:101280002C0450932D0460932E0470932F048093AC
:1012900030049093310489019A01AB01BC018AE0CA
:1012A0000E94832847E050E06CE170E0CE01019697
:1012B0000E9480030197D9F4CE0101960E94DD08B7
:1012C0002093320430933304409334045093350414
:1012D00060933604709337048093380490933904F4
:1012E00089019A01AB01BC018BE00E94832843E095
:1012F00050E063E270E0CE0101960E948003019706
:10130000D9F4098100933A0410923B0410923C04F2
:1013100010923D0410923E0410923F04109240043B
:101320001092410410E020E030E040E050E060E046
:1013300070E08CE00E94832843E050E066E270E0B9
:10134000CE0101960E9480030197D9F40981009390
:1013500042041092430410924404109245041092E7
:10136000460410924704109248041092490410E079
:1013700020E030E040E050E060E070E08DE00E946E
:10138000832843E050E069E270E0CE0101960E94BC
:1013900080030197D9F4098100934A0410924B0409
:1013A00010924C0410924D0410924E0410924F046F
:1013B000109250041092510410E020E030E040E020
:1013C00050E060E070E08EE00E94832843E050E04F
:1013D0006CE270E0CE0101960E9480030197D9F47F
:1013E00009810093520410925304109254041092F5
:1013F00055041092560410925704109258041092FB
:10140000590410E020E030E040E050E060E070E09F
:101410008FE00E94832844E050E069E171E0CE0152
:1014200001960E948003019791F4898190E0A0E0E9
:10143000B0E0BA2FA92F982F88272A81822B80937A
:101440001F0190932001A0932101B09322014AE053
:1014500050E066E070E0CE0101960E9480030197A3
:1014600001F5998180E02A81822B90935B0480931F
:101470005A049B8180E02C81822B90935D048093A1
:101480005C049D8180E02E81822B90935F04809389
:101490005E049F8180E02885822B90936104809375
:1014A000600448E050E060E070E0CE0101960E94E8
:1014B0008003019791F4CE0101960E94DC2F609386
:1014C00084037093850380938603909387032AE0B7
:1014D00030E042E051E00E94593042E150E060E3E8
:1014E00070E08EE393E00E948003019709F048C00A
:1014F00042E150E060E271E08EE493E00E948003FC
:101500008EE393E041E050E0FC012191CF01622F96
:101510006051603188F0203330F46051A7E2B0E0D0
:10152000E8E2F0E00DC0203400F5622F6053AAE23B
:10153000B0E0EBE2F0E004C0A4E2B0E0E5E2F0E00D
:101540007C91262F26958A0102C0000F111F2A9533
:10155000E2F79801702B7C9360FD03C02081202B63
:1015600003C0308120952323208313E08E3491071C
:1015700059F64EEBE42E43E0F42E01EA10E009C0E8
:10158000EEE3F3E08FEF819323E0EE34F207D9F737
:10159000F0CF4CE050E0B801CE0101960E948003EC
:1015A000019751F0045F1F4F8AE0E80EF11C0931EA
:1015B00091E0190771F70EC0FE01319680E090E0CE
:1015C0002191D701A80FB91F2C9301968A3091055C
:1015D000B9F7E8CF3EE5E32E33E0F32E02E410E066
:1015E0004AE050E0B801CE0101960E9480030197C5
:1015F00049F0065F1F4FE8E0EE0EF11C0A361105B8
:1016000079F70EC0FE01319680E090E02191D7017C
:10161000A80FB91F2C93019688309105B9F7E9CF2F
:1016200002E614E02AE6E22EF12C45E050E0B70194
:10163000CE0101960E9480030197C9F4898190E050
:10164000A0E0B0E0F80180839183A283B3838A8114
:1016500090E0A0E0B0E084839583A683B7838B817C
:1016600090E0A0E0B0E080879187A287B387F5E0A3
:10167000EF0EF11C045F1F4F2EE7E216F104A9F6EE
:1016800043E050E06DE171E0CE0101960E948003DD
:101690000197F9F48AB188668AB91092B40018BC2F
:1016A00017BC8981811108C081EF84BD81E38093DB
:1016B000B0001092B50308C081EA84BD81E2809336
:1016C000B00081E08093B50383E085BD84E0809322
:1016D000B10045E050E06EE770E0CE0101960E9457
:1016E0008003019749F489818093AC038A818093B8
:1016F000AD038B818093AE0300EE12E093E8E92EF8
:10170000F12C45E050E0B701CE0101960E94800324
:10171000019759F4F801329789818083F801319754
:101720008A8180838B81F8018083F5E0EF0EF11CC4
:101730000D5F1F4F21EAE216F10419F72E960FB63E
:10174000F894DEBF0FBECDBFDF91CF911F910F91F7
:10175000FF90EF9008950F931F93F801248308E002
:101760000E94832E23830E94832E22830E94832E35
:1017700021830E94832E20831F910F9108952F9221
:101780003F924F925F926F927F928F929F92AF9211
:10179000BF92CF92DF92EF92FF920F931F93CF935E
:1017A000DF93CDB7DEB72C970FB6F894DEBF0FBE30
:1017B000CDBFFC012090F0023090F1022101612C9C
:1017C000712CA301920160E871E581E090E00E9434
:1017D000FE2D4B015C0143E0EE0FFF1F4A95E1F740
:1017E000E25AFC4F6081C180EC2CF12C028109830C
:1017F000038110E0348120E08581A901482B5C87BA
:101800004B87D7805FEFE516F10409F446C1F981F3
:10181000EF2FF0E0FA87E987EF3FF10509F43DC1CA
:1018200070E060527109CB01A0E0B0E0B595A795DA
:101830009795879588309105A105B1050CF07EC27A
:1018400080937C0080917A00806C80937A008091F4
:101850007A0084FFFCCF2091780030917900AFEFBF
:10186000B0E00E94E02D2AE09595879577956795E1
:101870002A95D1F720917A00206120937A004C2C90
:10188000512C612C712C46165706680679060CF00F
:1018900055C2A985BA8511969D0140E050E06217B6
:1018A0007307840795070CF049C20038110590F5BD
:1018B000F801E25CFC4F2081283C09F041C14985D8
:1018C0005A854E195F094B3F510508F039C19B01FC
:1018D000AC012419350946095709AFEFB0E00E9461
:1018E000F32D29812C1930E040E050E00E94582E61
:1018F000822FD2FC2093AC03D1FC8093AD03D0FCAB
:101900008093AE038D2D877009F41AC181E0809316
:101910007F0316C1EAE6F4E020E080819181A28194
:10192000B381892B8A2B8B2B09F021E03C9634E084
:10193000EA39F30791F721110AC020E030E0A9014C
:101940006B857C85C801805891090E94020382E65C
:10195000E82E84E0F82ECC24C394D12C0058110931
:10196000D7014D905D906D907C90139714964D919A
:101970005D916D917C9117978091A8039091A90337
:10198000A091AA03B091AB034415550566057705F0
:101990000CF046C02091F0023091F102480D591D23
:1019A0006A1D7B1D481759076A077B0748F1C90163
:1019B000A0E0B0E00097A105B10521F00197A109D1
:1019C000B10904C086E090E0A0E0B0E0960102C05A
:1019D000220F331F8A95E2F7A901662757FD60950C
:1019E000762FF70180859185A285B38548235923F9
:1019F0006A237B23452B462B472B09F444C03BC06D
:101A0000480C591C6A1C7B1C84159505A605B70556
:101A1000D0F1C60102C0880F991F2A95E2F71AC0BB
:101A2000480C591C6A1C7B1C84159505A605B70536
:101A300050F1480D591D6A1D7B1D481759076A074B
:101A40007B0708F1C6010090F00202C0880F991FC1
:101A50000A94E2F7AA2797FDA095BA2FF7014085CF
:101A600051856285738584239523A623B723892B0B
:101A70008A2B8B2B41F020E030E0A9016B857C851F
:101A8000C8010E940203FCE0EF0EF11C22E9E216FD
:101A900024E0F20609F064CF51C1862F90E0A0E067
:101AA000B0E0AC01BD0140515109610971094031FB
:101AB00051056105710530F4CB01BA01B3E2CB2EBB
:101AC000D12C1EC080339105A105B10554F4BC0191
:101AD000CD016052710981099109A6E2CA2ED12C6B
:101AE0000FC080349105A105B1050CF027C1BC01E0
:101AF000CD016053710981099109F9E2CF2ED12CF2
:101B000022E030E040E050E00E94582E28303105BD
:101B1000410551050CF012C1D6018C9190E002C034
:101B2000959587952A95E2F780FF04C0EF2809F480
:101B3000FDC004C1BFEFEB16F10409F0FFC0F6C011
:101B4000000F111F000F111FF801E250FD4F4081DF
:101B5000518162817381411551056105710519F447
:101B600081E080937F038091A8039091A903A091C5
:101B7000AA03B091AB03EB85FC858E0F9F1FA11DBF
:101B8000B11D481759076A077B0708F0D7C0F8014D
:101B9000E250FD4F80839183A283B383CFC08081C5
:101BA0009181A281B381892B8A2B8B2B09F021E0B3
:101BB0003C9634E0EA39F30791F721110AC020E09E
:101BC00030E0A9016B857C85C801805891090E948D
:101BD0000203D301C2010197A109B1094528462892
:101BE000472831F476E0472E512C612C712C02C02D
:101BF0002C013D0181E090E0AC0102C0440F551F73
:101C00004A94E2F79A01442737FD4095542F2983DF
:101C10003A834B835C832C0102C0440C551C2A94EC
:101C2000E2F7662457FC6094762C62E6E62E64E0C8
:101C3000F62E680130E8C31AD108D7018D919D9125
:101C40000D90BC91A02D8D839E83AF83B887F70143
:101C500044815581668177818091A8039091A90381
:101C6000A091AA03B091AB030D811E812F8138850D
:101C7000401751076207730724F5480D591D6A1D67
:101C80007B1D481759076A077B0768F08085918597
:101C9000A285B38529813A814B815C81822393237C
:101CA000A423B5232DC04D815E816F817885480DB9
:101CB000591D6A1D7B1D84179507A607B70760F19C
:101CC00016C00D811E812F813885080D191D2A1D12
:101CD0003B1D80179107A207B307F0F0480D591D6F
:101CE0006A1D7B1D481759076A077B07A8F0F70193
:101CF00080859185A285B38584219521A621B72170
:101D0000892B8A2B8B2B41F020E030E0A9016B85D9
:101D10007C85C6010E940203FCE0EF0EF11C02E983
:101D2000E01604E0F00609F088CF08C0003811057D
:101D300008F406CFEAE6F4E020E031CF2C960FB6A7
:101D4000F894DEBF0FBECDBFDF91CF911F910F91F1
:101D5000FF90EF90DF90CF90BF90AF909F908F90CB
:101D60007F906F905F904F903F902F9008950F93CA
:101D70001F93CF93DF9304E613E0C0E0D0E0F801B7
:101D8000369780818F3F39F0F8018081811103C03F
:101D9000CE010E94BF0B2196085F1F4FC430D105B2
:101DA00071F7DF91CF911F910F9108950F931F93BA
:101DB000CF93DF9304E613E0C0E0D0E0F80136975C
:101DC00080818F3FC9F0F8012081223008F411C0D2
:101DD00030E040E050E06091A8037091A903809149
:101DE000AA039091AB030E94362E672B682B692BB8
:101DF00019F4CE010E94BF0B2196085F1F4FC4301B
:101E0000D105E1F6DF91CF911F910F910895809157
:101E100093048F5F80939304529A909100019130C4
:101E200049F4823009F427C0843009F428C088318D
:101E300061F529C0923079F4823009F41CC08430F5
:101E400009F41DC0883009F416C08A3009F417C09F
:101E50008E31D9F418C09330C1F4823009F40BC02C
:101E6000843009F40CC0883009F405C08A3009F4C4
:101E700006C08E3011F45A9A0895803111F45A98A0
:101E80000895843211F410929304089510929304EB
:101E90005A9A529A0895AFE8B1E01197F1F700C04D
:101EA0000000DC010D900020E9F7BD0161507109CF
:101EB000681B790B0E94E429811104C082E08093A1
:101EC000000104C0109200010E94460F0C941728D4
:101ED000CF92DF92EF92FF92CF93DF93FC01838149
:101EE00080930C01848180930D01858180930E0184
:101EF000868180930F018781809310018085809374
:101F000011018CE091E00E94DC2F6B017C011092AA
:101F100088036DE371E088E893E00E9416301C149A
:101F20001D041E041F0484F4C0928403D092850310
:101F3000E0928603F09287032AE030E042E051E02D
:101F4000C701B6010E945930C2E0D1E009900020DB
:101F5000E9F72197C250D14007C06FE772E088E8E7
:101F600093E00E9416302196C630D105B4F362E0AA
:101F700071E088E893E00E94163088E893E0DF91F2
:101F8000CF91FF90EF90DF90CF900C944B0F2F925A
:101F90003F924F925F926F927F928F929F92AF92F9
:101FA000BF92CF92DF92EF92FF920F931F93CF9346
:101FB000DF93CDB7DEB72B970FB6F894DEBF0FBE19
:101FC000CDBF5C011092880385E0EBE6F1E0DE0115
:101FD000179601900D928A95E1F786E0EBE7F2E023
:101FE000DE01119601900D928A95E1F7650188E076
:101FF000C80ED11C212C312C412C512C612C712C60
:10200000812C912CE12CF12CF6013197808189876C
:10201000F60180818A8740E050E060E070E0CE0108
:1020200007960E94A72E872F880F880B262A372A0B
:10203000482A582A682A782A882A982AF4E0EF162B
:10204000F10459F09101A201B301C40108E00E941A
:10205000742E19012A013B014C018FEFE81AF80A8E
:10206000E2E0CE0ED11CF5E0EF16F10469F6F501C1
:102070008381833309F466C040F4813359F108F059
:1020800045C0803309F0CFC009C0853309F492C040
:1020900008F474C0843509F0C6C0A8C020922A0490
:1020A00030922B0440922C0450922D0460922E0406
:1020B00070922F04809230049092310462E471E0B7
:1020C00088E893E00E94163081019201A301B401D7
:1020D0008AE0A7C020923204309233044092340444
:1020E000509235046092360470923704809238041E
:1020F0009092390468E471E088E893E00E94163019
:1021000081019201A301B4018BE08BC020923A04BB
:1021100030923B0440923C0450923D0460923E0455
:1021200070923F0480924004909241046EE471E00A
:1021300088E893E00E94163081019201A301B40166
:102140008CE06FC0209242043092430440924404D9
:10215000509245046092460470924704809248046D
:102160009092490464E571E088E893E00E9416309B
:1021700081019201A301B4018DE053C020924A0471
:1021800030924B0440924C0450924D0460924E04A5
:1021900070924F0480925004909251046AE571E06D
:1021A00088E893E00E94163081019201A301B401F6
:1021B0008EE037C02092520430925304409254046F
:1021C00050925504609256047092570480925804BD
:1021D0009092590460E671E088E893E00E9416301E
:1021E00081019201A301B4018FE01BC0209222045F
:1021F00030922304409224045092250460922604D5
:1022000070922704809228049092290466E671E077
:1022100088E893E00E94163081019201A301B40185
:1022200080E10E9483288E010F5F1F4F9101A20160
:10223000B301C4010E94AB0B78016E01F6E0CF0E32
:10224000D11C66E171E0F70181917F0190E00E946D
:10225000C10766E171E088E893E00E941630EC1453
:10226000FD0479F788E893E00E944B0F2B960FB698
:10227000F894DEBF0FBECDBFDF91CF911F910F91BC
:10228000FF90EF90DF90CF90BF90AF909F908F9096
:102290007F906F905F904F903F902F900895EF92B6
:1022A000FF920F931F93CF93DF9300D000D000D005
:1022B000CDB7DEB710928803FC018381833309F424
:1022C0004BC030F4813369F0823309F0A5C02CC0D3
:1022D000853309F471C008F457C0843509F09CC0F7
:1022E00083C02091320430913304409134045091E2
:1022F000350460913604709137048E010F5F1F4FD3
:1023000080913804909139040E94AB0B60E771E032
:1023100088E893E00E9416308E010F5F1F4F7E0108
:10232000F6E0EF0EF11C90C020913A0430913B048E
:1023300040913C0450913D0460913E0470913F04F3
:102340008E010F5F1F4F80914004909141040E94C5
:10235000AB0B66E771E0DCCF20914204309143047F
:1023600040914404509145046091460470914704A3
:102370008E010F5F1F4F80914804909149040E9485
:10238000AB0B6CE771E0C4CF20914A0430914B0451
:1023900040914C0450914D0460914E0470914F0453
:1023A0008E010F5F1F4F80915004909151040E9445
:1023B000AB0B62E871E0ACCF209152043091530432
:1023C0004091540450915504609156047091570403
:1023D0008E010F5F1F4F80915804909159040E9405
:1023E000AB0B68E871E094CF209122043091230474
:1023F0004091240450912504609126047091270493
:102400008E010F5F1F4F80912804909129040E9434
:10241000AB0B6EE871E07CCF20912A0430912B0445
:1024200040912C0450912D0460912E0470912F0442
:102430008E010F5F1F4F80913004909131040E94F4
:10244000AB0B63E971E064CF66E171E0F801819163
:102450008F0190E00E94C10766E171E088E893E097
:102460000E9416300E151F0579F788E893E00E9448
:102470004B0F26960FB6F894DEBF0FBECDBFDF918F
:10248000CF911F910F91FF90EF900895FF920F93BE
:102490001F93CF93DF93EC0110928803FA80F092A0
:1024A00009018B8180930A0189E091E00E94BE2F8F
:1024B0008C01181619061CF080E3F81254C069E963
:1024C00071E088E893E00E9416306091A803709153
:1024D000A9038091AA039091AB0320E130E046E18B
:1024E00051E00E94593066E171E088E893E00E9473
:1024F000163062EA71E088E893E00E941630F80135
:10250000EE0FFF1FEE0FFF1FE250FD4F6081718144
:102510008281938120E130E046E151E00E94593010
:1025200066E171E088E893E00E94163068EA71E0A5
:1025300088E893E00E941630F801E25CFC4F4AE024
:1025400050E066E171E0808190E00E94383066E101
:1025500071E088E893E00E94163088E893E00E94DA
:102560004B0F109288036DEA71E088E893E00E94B7
:102570001630E2E0F1E0DF010D900020E9F78D0177
:10258000015011090E1B1F0B08C06FE772E088E8AD
:1025900093E00E9416300F5F1F4F06301105ACF319
:1025A00062E071E088E893E00E94163080910101BA
:1025B000813019F460EB71E074C067EC71E088E879
:1025C00093E00E94163066E171E08091FA029091EA
:1025D000FB020E94F90666E171E088E893E00E9440
:1025E00016306BE371E088E893E00E94163066E1F4
:1025F00071E08091F8029091F9020E94F90666E17B
:1026000071E088E893E00E9416306BE371E088E89F
:1026100093E00E94163066E171E08091FC02909197
:10262000FD020E94F90666E171E088E893E00E94ED
:10263000163063E472E088E893E00E94163066E1A9
:1026400071E08091F6029091F7020E94F90666E12E
:1026500071E088E893E00E94163069EC71E088E848
:1026600093E00E94163066E171E08091F40290914F
:10267000F5020E94F90666E171E088E893E00E94A5
:10268000163069EC71E088E893E00E94163066E14C
:1026900071E08091F2029091F3020E94F90666E1E6
:1026A00071E088E893E00E94163088E893E00E9489
:1026B0004B0F109288038A81813709F4F0C06BECCC
:1026C00071E088E893E00E9416300FEB13E0C0E061
:1026D000D0E066E171E0CE010E94F90666E171E0AA
:1026E00088E893E00E941630F801319780818F3F8F
:1026F00039F4F80180818F3F19F467ED71E002C071
:1027000061ED71E088E893E00E941630E8E8F3E0BC
:1027100001900020E9F73197E858F340799730F0BD
:1027200088E893E00E944B0F10928D032196065F7C
:102730001F4FCA30D10569F688E893E00E944B0F1D
:102740001092880363ED71E088E893E00E941630F0
:102750000EE313E0C0E0D0E066E171E0CE010E943C
:10276000F90666E171E088E893E00E941630D8012E
:102770008D918D018F3F19F467ED71E002C061ED1D
:1027800071E088E893E00E941630E8E8F3E00190F9
:102790000020E9F73197E858F340799730F088E85E
:1027A00093E00E944B0F10928A032196C031D1050D
:1027B00099F688E893E00E944B0F1092880366ED2B
:1027C00071E088E893E00E9416300EE513E0C0E067
:1027D000D0E066E171E0CE010E94F90666E171E0A9
:1027E00088E893E00E941630F80180818F3F19F449
:1027F00067ED71E002C061ED71E088E893E00E944E
:1028000016302196085F1F4FC430D10511F788E8B4
:1028100093E00E944B0F1092880369ED71E088E805
:1028200093E00E9416300EEF12E0C0E0D0E066E1C7
:1028300071E0CE010E94F90666E171E088E893E05C
:102840000E941630D8014D915D916D917D918D0161
:10285000452B462B472B19F061ED71E002C067ED67
:1028600071E088E893E00E941630E8E8F3E0019018
:102870000020E9F73197E858F340799730F088E87D
:1028800093E00E944B0F10928D032196C031D10529
:1028900071F688E893E00E944B0F10928803DF9155
:1028A000CF911F910F91FF900895AF92BF92CF9259
:1028B000DF92EF92FF920F931F93CF93DF93CDB7E9
:1028C000DEB760970FB6F894DEBF0FBECDBFFC0138
:1028D000238120930901848180930A0189E091E09A
:1028E0000E94BE2F8C01109288038AE0809FF00125
:1028F000819FF00D1124E254FC4F80818F3FB9F489
:1029000081818F3FA1F46FED71E088E893E00E9430
:10291000163069E071E0C8010E94F90669E071E0D3
:1029200088E893E00E94163062EE71E010C11982CF
:10293000BE016F5F7F4FC8010E94D2026C011092EE
:10294000880369EE71E088E893E00E9416304AE05F
:1029500050E069E071E0C8010E94383069E071E040
:1029600088E893E00E941630C114D10439F46FEE68
:1029700071E0CE0101960E94163029C063EF71E02C
:1029800088E893E00E941630EE24E394F12CEC0EDC
:10299000FD1E570116C069EC71E088E893E00E94C3
:1029A00016304AE050E069E071E0F70181917F0163
:1029B00090E00E94383069E071E088E893E00E947E
:1029C0001630C7018A199B098C159D0524F388E8E8
:1029D00093E00E944B0F109288038AE0809FF001E1
:1029E000819FF00D1124E254FC4F918180E02281FF
:1029F000AC01422B9A016CE3E62EF12CC901B70120
:102A00000E940E2E8B014CE3469FC001479F900D04
:102A100011246901C81AD90A338120E08481A901EF
:102A2000482BCA01B7010E940E2EB62EE72EF08069
:102A300068EC71E088E893E00E9416304AE050E0CC
:102A400069E071E0C8010E94383069E071E088E80F
:102A500093E00E94163069EC71E088E893E00E94F0
:102A600016304AE050E069E071E0C6010E9438305B
:102A700069E071E088E893E00E94163065EF71E04C
:102A800088E893E00E9416304AE050E066E171E089
:102A90008B2D9E2D0E94383066E171E088E893E02E
:102AA0000E9416306BEF71E088E893E00E941630C8
:102AB0005FEFF51203C061E072E049C0F6FE03C0AB
:102AC00063EF71E002C067E072E088E893E00E9483
:102AD0001630F5FE03C069E072E002C067E072E004
:102AE00088E893E00E941630F4FE03C06BE072E0C9
:102AF00002C067E072E088E893E00E941630F3FEBF
:102B000003C06DE072E002C067E072E088E893E025
:102B10000E941630F2FE03C06BE072E002C067E074
:102B200072E088E893E00E941630F1FE03C06FE087
:102B300072E002C067E072E088E893E00E9416301D
:102B4000F0FE03C063EF71E002C067E072E088E866
:102B500093E00E94163088E893E00E944B0F609645
:102B60000FB6F894DEBF0FBECDBFDF91CF911F919E
:102B70000F91FF90EF90DF90CF90BF90AF900895AE
:102B8000CF92DF92EF92FF920F931F93CF93DF9339
:102B90001F92CDB7DEB71092880361E172E088E83A
:102BA00093E00E9416300CEA13E0E12CF12C06C0F1
:102BB00068E172E088E893E00E94163066E171E017
:102BC000F80181918F0190E00E94C10766E171E0F8
:102BD00088E893E00E941630FFEFEF1AFF0A83E0C7
:102BE000E816F10429F76AE172E088E893E00E94B0
:102BF000163066E171E08091B50390E00E94F9061D
:102C000066E171E088E893E00E94163088E893E07E
:102C10000E944B0F1092880360E272E088E893E014
:102C20000E941630EEEDEE2EE2E0FE2EC12CD12CED
:102C300009C068E172E088E893E00E941630E3E0A2
:102C4000EE0EF11C65E471E088E893E00E94163016
:102C500000E010E0F701E00FF11F66E171E0808114
:102C600090E00E94C10766E171E088E893E00E946D
:102C700016300F5F1F4F0330110561F7E8E8F3E0EE
:102C800001900020E9F73197E858F3407A9750F027
:102C9000F5E0CF16D10431F088E893E00E944B0FA5
:102CA00010928E038FEFC81AD80AE6E0CE16D10430
:102CB00009F0BFCF88E893E00E944B0F1092880381
:102CC0000EE313E0E12CF12CF80121918F01822F0A
:102CD000885C853178F567E272E088E893E02983C3
:102CE0000E9416302981283C19F46CE272E007C07A
:102CF0002A3C19F463E372E002C069E372E088E8F9
:102D000093E00E9416306DE372E088E893E00E9441
:102D1000163066E171E0C7010E94F90666E171E0D4
:102D200088E893E00E94163088E893E00E944B0FF9
:102D300010928803FFEFEF1AFF0A80E1E816F10412
:102D400019F60F90DF91CF911F910F91FF90EF90A7
:102D5000DF90CF900895CF93DF93CDB7DEB7A397E1
:102D60000FB6F894DEBF0FBECDBF1BA21AA219A2E8
:102D70000E945A001982FC01E25CFC4F2081322F34
:102D8000385C353190F420FD0DC02A3C19F465E41F
:102D900072E037C0243D19F469E472E032C06DE49A
:102DA00072E02FC061E572E02CC09E012F5D3F4FA5
:102DB000AE014E5D5F4FBE016D5D7F4F0E946500AD
:102DC0008BA18093090110920A0169E071E0CE01A4
:102DD00001960E9416304AE050E069E071E08AA155
:102DE00090E00E94383069E071E0CE0101960E94C7
:102DF000163089A1811103C065E572E002C067E564
:102E000072E0CE0101960E941630CE0101960E941A
:102E10004B0FA3960FB6F894DEBF0FBECDBFDF9168
:102E2000CF91089589E592E00C944B0FFC0123812A
:102E300020930901848180930A0189E091E00E9436
:102E4000BE2FF3E0880F991FFA95E1F7FC01E25AD3
:102E5000FC4F208130E0A90140515109403151051A
:102E600020F49A01E3E2F0E00FC0203331052CF4A6
:102E700020523109E6E2F0E007C0203431059CF42D
:102E800020533109E9E2F0E0308141E050E001C037
:102E9000440F2A95EAF7409543234083FC01E25A08
:102EA000FC4F2FEF20830C941217EF92FF920F9399
:102EB0001F93CF93DF93EC01A9E0EA2EA1E0FA2E55
:102EC0008B81F70180830AE011E08C81F801808317
:102ED000C7010E94BE2F90935B0480935A048D819A
:102EE000F70180838E81F8018083C7010E94BE2F85
:102EF00090935D0480935C048885F70180838985C5
:102F0000F8018083C7010E94BE2F90935F048093D5
:102F10005E048A85F70180838B85F8018083C70171
:102F20000E94BE2F9093610480936004DF91CF9143
:102F30001F910F91FF90EF900C941217CF93DF9396
:102F400080E090E00E94BE0386E090E00E94BE0315
:102F50008EE090E00E94BE0385E190E00E94BE03F7
:102F60008CE190E00E94BE0383E290E00E94BE03E9
:102F700086E290E00E94BE0389E290E00E94BE03D8
:102F80008CE290E00E94BE0380E390E00E94BE03CA
:102F90008DE191E00E94BE0380E291E00E94BE03B9
:102FA00082E490E00E94BE038CE490E00E94BE03A5
:102FB00086E590E00E94BE0380E690E00E94BE039A
:102FC0008AE690E00E94BE038FE690E00E94BE0376
:102FD00084E790E00E94BE0389E790E00E94BE0370
:102FE0008EE790E00E94BE0383E890E00E94BE035B
:102FF00088E890E00E94BE038DE890E00E94BE0346
:1030000082E990E00E94BE0387E990E00E94BE033F
:103010008CE990E00E94BE03C1EAD0E0CE010E949C
:10302000BE032C96C93181E0D807C1F789E191E050
:103030000E94BE03DF91CF910C941217BF92CF92E2
:10304000DF92EF92FF920F931F93CF93DF93CDB751
:10305000DEB72E970FB6F894DEBF0FBECDBFB0908F
:103060002204C0902304D0902404E0902504F09022
:103070002604B0912704F0912804E09129042B2D17
:103080003C2D4D2D5E2D6F2D7B2F8F2F9E2FA0E081
:103090000E949B2E61F08E010F5F1F4F0E94AB0BB1
:1030A00047E050E06EE070E0C8010E94AE03B090CF
:1030B0002A04C0902B04D0902C04E0902D04F090B2
:1030C0002E04B0912F04F0913004E09131042B2DA7
:1030D0003C2D4D2D5E2D6F2D7B2F8F2F9E2FA0E031
:1030E0000E949B2E61F08E010F5F1F4F0E94AB0B61
:1030F00047E050E065E170E0C8010E94AE03B09087
:103100003204C0903304D0903404E0903504F09041
:103110003604B0913704F0913804E09139042B2D36
:103120003C2D4D2D5E2D6F2D7B2F8F2F9E2FA0E0E0
:103130000E949B2E61F08E010F5F1F4F0E94AB0B10
:1031400047E050E06CE170E0C8010E94AE03E091FE
:103150003A0430913B0440913C0450913D0460910D
:103160003E0470913F042E2F8091400490914104C1
:10317000A0E00E949B2E49F0E98343E050E063E227
:1031800070E0CE0101960E94AE03E09142043091BE
:103190004304409144045091450460914604709169
:1031A00047042E2F8091480490914904A0E00E948A
:1031B0009B2E49F0E98343E050E066E270E0CE01E7
:1031C00001960E94AE03E0914A0430914B04409175
:1031D0004C0450914D0460914E0470914F042E2F79
:1031E0008091500490915104A0E00E949B2E49F0E0
:1031F000E98343E050E069E270E0CE0101960E946D
:10320000AE03E09152043091530440915404509124
:10321000550460915604709157042E2F80915804E4
:1032200090915904A0E00E949B2E49F0E98343E06D
:1032300050E06CE270E0CE0101960E94AE038091F6
:103240001F0190912001A0912101B09122010097CE
:10325000A105B10551F099838A8344E050E069E10A
:1032600071E0CE0101960E94AE0380915A049091C4
:103270005B040097E1F099838A8380915C049091CC
:103280005D049B838C8380915E0490915F049D8399
:103290008E8380916004909161049F8388874AE0C7
:1032A00050E066E070E0CE0101960E94AE036091AE
:1032B000840370918503809186039091870316168D
:1032C0001706180619067CF42AE030E0AE014F5FBD
:1032D0005F4F0E94593048E050E060E070E0CE015E
:1032E00001960E94AE03EEE3F3E010E080E09191DE
:1032F0009F3F09F081E0985C9F3108F411E093E072
:10330000EE34F907A1F7813081F442E150E060E347
:1033100070E08EE393E00E94AE0342E150E060E291
:1033200071E08EE493E00E94AE038091B50389833F
:10333000113041F443E050E06DE171E0CE010196BF
:103340000E94AE032EEBE22E23E0F22E3FEBC32EC3
:1033500033E0D32E01EA10E0B801F70180818F3FFE
:1033600021F4F60180818F3F99F0FE01319680E0D3
:1033700090E0D701A80FB91F2C91219301968A30B4
:103380009105B9F74CE050E0CE0101960E94AE03E2
:10339000FAE0EF0EF11C8AE0C80ED11C045F1F4F4B
:1033A000093191E01907C1F69EE5E92E93E0F92E67
:1033B00002E410E0F70180818F3FA1F0FE01319619
:1033C00080E090E0D701A80FB91F2C9121930196BE
:1033D00088309105B9F74AE050E0B801CE01019676
:1033E0000E94AE03F8E0EF0EF11C065F1F4F0A3695
:1033F000110501F702E614E08AE6E82EF12CF80147
:1034000080859185A285B3850097A105B10561F0FE
:103410002081298324812A838B834AE050E0B701ED
:10342000CE0101960E94AE03045F1F4FF5E0EF0E40
:10343000F11C8EE7E816F10411F78091AC038111BD
:1034400004C09091AD039923B1F089838091AD03BD
:103450008A838091AE038B8345E050E06EE770E095
:10346000CE0101960E94AE03B0E6EB2EB3E0FB2E38
:1034700003E810E005C09091AE039111E6CFF4CFC0
:10348000B8018091DE02811104C08091DF02813099
:1034900091F0F701329780818983F701319780811C
:1034A0008A83F70180818B8345E050E0CE0101964D
:1034B0000E94AE0304C08091E0028111EACFF8E0DF
:1034C000EF0EF11C0B5F1F4F013A1105C9F60E9468
:1034D00012172E960FB6F894DEBF0FBECDBFDF9148
:1034E000CF911F910F91FF90EF90DF90CF90BF9001
:1034F0000895CF92DF92EF92FF920F931F93CF9395
:10350000DF93EC011092190146E1C42E41E0D42E64
:103510008E81F601808357E1E52E51E0F52E8F81F3
:10352000F701808308E111E08885F8018083C601F6
:103530000E94BE2F8093AC038A85F60180838B8521
:10354000F70180838C85F8018083C6010E94BE2F1D
:103550008093AD038E85F60180838F85F70180838C
:103560008889F8018083C6010E94BE2F8093AE0334
:1035700010928803DF91CF911F910F91FF90EF90F0
:10358000DF90CF900C941217FC0123812093090146
:10359000848180930A0189E091E00E94BE2F181671
:1035A000190624F490931E0180931D010C941217A8
:1035B000FC018581809316018681809317018781A4
:1035C0008093180180858093190186E191E00E9423
:1035D000BE2F1816190624F490931C0180931B012A
:1035E0000C9412170E945A000E94D5000C941217D6
:1035F000FC0183818093160184818093170185816A
:103600008093180186818093190186E191E00E94E0
:10361000BE2F0097E1F44AE050E066E171E080914E
:103620001F01909120010E943830109288036CE5B0
:1036300072E088E893E00E94163066E171E088E865
:1036400093E00E94163088E893E00C944B0FAA2771
:1036500097FDA095BA2F40911F01509120016091D4
:10366000210170912201480F591F6A1F7B1F40934F
:103670001F015093200160932101709322010C944B
:1036800012170E945A009C018091150121153105E5
:1036900079F54AE050E069E071E090E00E9438304E
:1036A0001092880368E672E088E893E00E94163082
:1036B00069E071E088E893E00E9416306EE672E0FF
:1036C00088E893E00E9416304AE050E069E071E03B
:1036D00080911301909114010E94383069E071E0EB
:1036E00088E893E00E94163088E893E00C944B0F32
:1036F0002131310514F020E130E090E040911301D8
:10370000509114018417950721F4309314012093EC
:1037100013012093150181E080937F030C9412170D
:10372000CF93DF93EC011092880361E772E088E8A1
:1037300093E00E94163069E071E0CE010E94930789
:1037400069E071E088E893E00E94163088E893E031
:10375000DF91CF910C944B0F5F926F927F928F927B
:103760009F92AF92BF92CF92DF92EF92FF920F9310
:103770001F93CF93DF93EC018B81809309018C81A0
:1037800080930A0189E091E00E94BE2F7C0184E0D1
:10379000E816F1041CF081E190E010C080E3809312
:1037A00009018E8180930A0189E091E00E94BE2F79
:1037B0006C01E7E0E81798F484E090E0DF91CF91A6
:1037C0001F910F91FF90EF90DF90CF90BF90AF903F
:1037D0009F908F907F906F905F900C94901B898545
:1037E000809309018A8580930A0189E091E00E9413
:1037F000BE2F8C018F8580930901888980930A01EF
:1038000089E091E00E94BE2F4C018B8580931601C8
:103810008C85809317018D85809318018E85809308
:10382000190186E191E00E94BE2F582E288520358F
:1038300011F0203711F400581F4FB60177279B0174
:10384000220F331F4D81423411F0423641F4205F84
:103850003F4FB5E26B2E712CA4E2B0E01CC04334A4
:1038600011F0433641F4205E3F4FA8E26A2E712CDE
:10387000A7E2B0E010C0443411F0443641F4205DBA
:103880003F4FFBE26F2E712CAAE2B0E004C0612C26
:10389000712CA0E0B0E04EE353E05901FFEFAF1A06
:1038A000BF0AFA01C190AF01D12CC216D30619F09C
:1038B000CA14DB0419F482E190E080CFF3E04E34C7
:1038C0005F0779F7A70173E0440F551F7A95E1F779
:1038D000EEE5EE2EE3E0FE2EE40EF51EF70120836A
:1038E0002F81283421F0283611F0213339F4EA01F0
:1038F000C25ADC4F19822FEF2A8304C02FEFF70141
:1039000021831282EA01C25ADC4F0B839C835D82C1
:1039100094012F3F310519F014F02FEF30E02E8382
:103920008C9121E030E001C0220F6A95EAF7922FD6
:10393000909589238C93F3018081822B8083DF9182
:10394000CF911F910F91FF90EF90DF90CF90BF909C
:10395000AF909F908F907F906F905F900C94121714
:103960002F923F924F925F926F927F928F929F928F
:10397000AF92BF92CF92DF92EF92FF920F931F937D
:10398000CF93DF9300D01F92CDB7DEB79B838A839E
:10399000DC0113968C9113978093090114968C91F6
:1039A00080930A0189E091E00E94BE2F8C0184304F
:1039B00091051CF081E190E013C050E3B52EB09268
:1039C0000901EA81FB81868180930A0189E091E007
:1039D0000E94BE2F6C01F7E0F817C8F484E090E075
:1039E0000F900F900F90DF91CF911F910F91FF904B
:1039F000EF90DF90CF90BF90AF909F908F907F908F
:103A00006F905F904F903F902F900C94901BAA81E5
:103A1000BB811E968C911E97809309011F968C91F5
:103A200080930A0189E091E00E94BE2F7C01EA8127
:103A3000FB81848980930901858980930A0189E04B
:103A400091E00E94BE2F782E892EB0920901AA81A2
:103A5000BB8156968C9180930A0189E091E00E9487
:103A6000BE2F982EB0921601EA81FB818781809348
:103A7000170180858093180181858093190186E163
:103A800091E00E94BE2F5C01AA81BB811A968C91A5
:103A90001A97809317011B968C911B97809318019E
:103AA0001C968C918093190186E191E00E94BE2FB3
:103AB0002C01EA81FB8180898093160181898093A2
:103AC000170182898093180183898093190186E107
:103AD00091E00E94BE2F682E9983AA81BB81159622
:103AE0008C91833429F0833619F083E090E078CF0D
:103AF000DD24C601880F991FAA2797FDA095BA2F2C
:103B00008096A11DB11DEEE3F3E0419150E060E02D
:103B100070E0481759076A077B0719F482E190E0C3
:103B20005FCF23E0EE34F20781F793E0000F111F1F
:103B30009A95E1F72EE5222E23E0322E200E311E3B
:103B4000F101808327B181E090E001C0880FCA9421
:103B5000EAF78095822387B92FEF30E0D5010E94E4
:103B6000EC2D34E6A32EB12CC12CD12CA60195014D
:103B70000E94582ED10111962C932FEF30E0D201E4
:103B80000E94EC2DA60195010E94582E2F3F310571
:103B90004105510521F42EEF30E040E050E0F801FE
:103BA000E25AFC4F2283EA81FB818585803511F042
:103BB000803719F4F0E8EF0EF11CF801E25AFC4FDF
:103BC000E382298124836582872D982D8F3F91057B
:103BD00019F014F08FEF90E08683F801E25AFC4F61
:103BE000892D883008F087E0878380917A00816092
:103BF00080937A000F900F900F90DF91CF911F91DB
:103C00000F91FF90EF90DF90CF90BF90AF909F907B
:103C10008F907F906F905F904F903F902F900C947B
:103C200012170F931F93CF93DF93EC018B81809337
:103C300009018C8180930A0189E091E00E94BE2FE6
:103C40008C018A30910544F082E090E0DF91CF91C1
:103C50001F910F910C94901B8D8180930C018E818C
:103C600080930D018F8180930E01888580930F01D1
:103C70008985809310018A85809311018CE091E001
:103C80000E94DC2F20E030E0A901C8010E9402035D
:103C9000DF91CF911F910F910C941217AF92BF92A9
:103CA000CF92DF92EF92FF920F931F93CF93DF9308
:103CB000EC018B8180930901FC80F0920A0189E07C
:103CC00091E00E94BE2F8C018A3091052CF4009760
:103CD00031F420E3F21619F082E090E010C08AE09F
:103CE000809FF001819FF00D1124E254FC4F8081F0
:103CF0008F3F89F481818F3F71F48DE090E0DF91F7
:103D0000CF911F910F91FF90EF90DF90CF90BF90D8
:103D1000AF900C94901B8D8180930901AE80A0928E
:103D20000A0189E091E00E94BE2F6C018F8180938F
:103D30000901B884B0920A0189E091E00E94BE2F87
:103D40007C018985809316018A85809317018B8574
:103D5000809318018C858093190186E191E00E947F
:103D6000BE2F28E1C216D10434F4C114D10431F4B9
:103D700020E3A21619F089E090E0C1CF2CE3E2160F
:103D8000F10434F4E114F10431F420E3B21619F033
:103D90008AE090E0B4CF009719F48BE090E0AFCFC9
:103DA0006CE3689FA001699F500D11246C9D9001E8
:103DB0006D9D300D11242E0D3F1D8AE0809FF00176
:103DC000819FF00D1124E254FC4F318322835383F1
:103DD00055274483DF91CF911F910F91FF90EF9072
:103DE000DF90CF90BF90AF900C941217EF92FF929C
:103DF0000F931F93CF93DF93CDB7DEB728970FB6FE
:103E0000F894DEBF0FBECDBF7C0188E0E9E7F2E0A9
:103E1000DE01119601900D928A95E1F7F7018381F9
:103E200080930901848180930A0189E091E00E94D6
:103E3000BE2F8C01F7018581898386818A838781E2
:103E40008B8380858C8381858D8382858E8383851A
:103E50008F8342E050E060E070E0CE0101960E9466
:103E6000A72E0A3011053CF40115110539F4F701AC
:103E70002481203319F082E090E01EC02AE0209FC8
:103E8000F001219FF00D1124E254FC4F20812F3FBF
:103E900031F421812F3F19F48DE090E00DC0AB018A
:103EA000BC014F77552766277727411551056105D6
:103EB000710529F48FE090E00E94901B0BC08AE00E
:103EC000809FF001819FF00D1124E254FC4F40834C
:103ED0000E94121728960FB6F894DEBF0FBECDBF12
:103EE000DF91CF911F910F91FF90EF900895CF92A6
:103EF000DF92EF92FF920F931F93CF93DF93CDB793
:103F0000DEB760970FB6F894DEBF0FBECDBF7C0161
:103F1000FC01838180930901848180930A0189E0F7
:103F200091E00E94BE2F8C01F701858180930901E9
:103F3000868180930A0189E091E00E94BE2F6C0186
:103F40001982BE016F5F7F4FC8010E94D202FE013D
:103F50003196AF0108C0219130E02C153D0519F4D0
:103F60008CE090E068C09F01241B350B28173907AF
:103F700094F30A3011053CF40115110539F4F701E9
:103F80008481803319F082E090E055C0F0E1CF16D3
:103F9000D1043CF4C114D10439F4F7018681803393
:103FA00019F081E090E047C08AE0809FF001819F96
:103FB000F00D1124E254FC4F80818F3F31F4818158
:103FC0008F3F19F48DE090E036C04AE050E069E0A0
:103FD00071E0C8010E943830C8010E94B802009701
:103FE000C9F54AE0409FF001419FF00D1124E254D1
:103FF000FC4F818590E08F3F910551F52FEF30E028
:1040000089E090E0489FF001499FF00D1124E254AF
:10401000FC4F50815F3F31F455815F3F19F49C01A3
:1040200080E090E001971816190664F32F3F3105E0
:1040300029F48EE090E00E94901B19C0409FF0018F
:10404000419FF00D1124E254FC4F21878901CACF12
:104050008C01C8CF2AE0209FF001219FF00D112490
:10406000E80FF91FE254FC4FC0820E9412176096BD
:104070000FB6F894DEBF0FBECDBFDF91CF911F9179
:104080000F91FF90EF90DF90CF9008950F931F93C3
:10409000CF93DF938C010E945A00EC018A30910586
:1040A00034F4009761F4F8018481803341F082E0B8
:1040B00090E0DF91CF911F910F910C94901B4AE0FB
:1040C00050E069E071E0CE010E9438300E94121782
:1040D000CE01DF91CF911F910F910C94A202EF922C
:1040E000FF920F931F93CF93DF93EC010E945A002E
:1040F0007C0186E0E816F10454F087E090E0DF915F
:10410000CF911F910F91FF90EF900C94901B109204
:1041100019018E81809316018F8180931701888504
:104120008093180186E191E00E94BE2F8701000F65
:10413000111F0E0D1F1D02521D4FF80180838A852D
:10414000809316018B85809317018C8580931801CD
:1041500086E191E00E94BE2FF80181838E858093D5
:1041600016018F858093170188898093180186E155
:1041700091E00E94BE2FF8018283DF91CF911F91C1
:104180000F91FF90EF900C9412170F931F93CF9302
:10419000DF93EC01EEE3F3E08191982F9654923097
:1041A00040F08A3431F08B3421F08C3411F08D34AE
:1041B00041F486E090E0DF91CF911F910F910C9434
:1041C000901B83E0EE34F80739F78D818093090165
:1041D0008E8180930A0189E091E00E94BE2F8C01BC
:1041E0000E94D5008885883421F0883611F081330B
:1041F00029F4F801E25CFC4F89EC0AC0F801E25CAA
:10420000FC4F833411F0833611F48AEC01C088EC42
:1042100080838AB188668AB91092B40018BC17BC32
:104220008F81803331F41092B50381EF84BD81E337
:1042300006C081E08093B50381EA84BD81E280936A
:10424000B00083E085BD84E08093B100DF91CF9121
:104250001F910F910C941217EF92FF920F931F93DF
:10426000CF93DF9300D000D0CDB7DEB77C010E94A2
:104270005A008C018031910534F4FC01E25CFC4F62
:1042800020812F3F19F481E090E023C0F701858160
:1042900080930C01868180930D01878180930E01AC
:1042A000808580930F0181858093100182858093A2
:1042B00011018CE091E02C830E94DC2F462F572FB8
:1042C000BC012C81411551056105710529F485E07A
:1042D00090E00E94901BACC08091A8039091A9032C
:1042E000A091AA03B091AB03840F951FA61FB71F1F
:1042F000F801EE0FFF1FEE0FFF1FE250FD4F408150
:10430000518162817381481759076A077B0720F43E
:1043100080839183A283B383822F885C853108F0E8
:1043200050C0283CC9F58091AD03E091AE03609187
:104330001301709114019091AC03969FA001979F77
:10434000500D1124F4E056954795FA95E1F75093F6
:10435000B0034093AF03869F9001879F300D1124D7
:10436000A4E036952795AA95E1F73093B203209300
:10437000B103E69FC001E79F900D1124B4E096952C
:104380008795BA95E1F79093B4038093B303409374
:10439000B40028BD87BD4AC02A3C21F481E0809347
:1043A000810344C0243D49F4F801E25BFC4F808165
:1043B000809313011092140139C081E0809380032F
:1043C00035C09E012F5F3F4FAE014E5F5F4FBE0174
:1043D0006D5F7F4FC8010E9465003A818B818234F6
:1043E00039F0833441F0843449F0E0E0F0E008C073
:1043F000E5E2F0E005C0E8E2F0E002C0EBE2F0E068
:104400008981208181110AC081E090E0032E01C0E2
:10441000880F0A94EAF78095282307C081E090E08E
:1044200001C0880F3A95EAF7282B20830E941217C3
:104430000F900F900F900F90DF91CF911F910F91E0
:10444000FF90EF900895AF92BF92CF92DF92EF92DC
:10445000FF920F931F93CF93DF931F92CDB7DEB7D9
:104460006C0180E380930901D60116968C918093AC
:104470000A0189E091E00E94BE2FF82EF6018781A3
:1044800080930A0189E091E00E94BE2FE82ED601B8
:1044900015962C91C60129830E945A008C010E9416
:1044A000D5002981223409F466C0223609F463C09C
:1044B000233409F467C0233609F464C0243409F4B2
:1044C00068C0243609F048C064C00115110569F4BC
:1044D000D60113968C911397803339F014968C91F2
:1044E000882319F081E090E039C04F2D483038F42E
:1044F000F11008C0D60116968C91803319F084E033
:1045000090E02CC0D5015C9121E030E00F2C01C07F
:10451000220F0A94EAF7522B5C93440FD801A25C55
:10452000BC4F490F4C938081E11003C0822B8083E4
:1045300006C02095822380838C918F5F8C930F908F
:10454000DF91CF911F910F91FF90EF90DF90CF906F
:10455000BF90AF900C94121782E090E00F90DF9123
:10456000CF911F910F91FF90EF90DF90CF90BF9070
:10457000AF900C94901B64E2A62EB12CE5E2F0E023
:1045800090E10DC057E2A52EB12CE8E2F0E090E2F8
:1045900006C04AE2A42EB12CEBE2F0E090E3003139
:1045A00011050CF492CF9ECF2F923F924F925F92C3
:1045B0006F927F928F929F92AF92BF92CF92DF9233
:1045C000EF92FF920F931F93CF93DF93CDB7DEB798
:1045D0002C970FB6F894DEBF0FBECDBF6C0188E0FC
:1045E000E9E7F2E0DE01119601900D928A95E1F77C
:1045F00010928803F601838180930901848180935E
:104600000A0189E091E00E94BE2F8C01853091055E
:104610001CF080E190E0E9C0F6018581883769F4FB
:104620008CE0809FF001819FF00D1124EE59FB4F2B
:10463000108611861286138611C18F3309F07CC053
:104640008CE0809FF001819FF00D1124EE59FB4F0B
:1046500080809180A280B38061E872E088E893E076
:104660000E941630C501B40120E13EE040E050E078
:104670000E94582E69017A0166E171E0C9010E9429
:10468000F90666E171E088E893E00E94163069EC73
:1046900071E088E893E00E94163020E13EE0C29E7F
:1046A000C001C39E900DD29E900D1124A5019401CE
:1046B000281B390B41095109CA01B9012CE330E02B
:1046C00040E050E00E94582E66E171E0C901298760
:1046D0003A874B875C870E94F90666E171E088E8BB
:1046E00093E00E94163068E872E088E893E00E9448
:1046F000163066E171E0C6010E94F90666E171E0DC
:1047000088E893E00E94163069EC71E088E893E055
:104710000E94163066E171E029853A85C9010E9440
:10472000F90666E171E088E893E00E94163088E8B7
:1047300093E00E944B0F94C0D6011D96FE01319666
:10474000CE0108962D912193E817F907D9F742E099
:1047500050E060E070E0CE0101960E94A72E2B0190
:104760003C01F601858180930901868180930A01CD
:1047700089E091E00E94BE2F7C01F6018781809341
:104780000901808580930A0189E091E00E94BE2F93
:104790004C01F601818580930901828580930A018D
:1047A00089E091E00E94BE2F1C01F6018385809371
:1047B0000901848580930A0189E091E00E94BE2F5F
:1047C000F8E1EF16F10420F428E12216310418F084
:1047D00089E090E00AC0F401EC33F10520F4AC016B
:1047E0008C33910528F08AE090E00E94901B38C03D
:1047F0009701A0E1BEE00E94E02D6B017C019101D8
:104800000E94E02D2CE0209FD001219FB00D1124AB
:10481000AE59BB4F2CE3289D8001299D100D11241A
:10482000C00ED11EE11CF11CCD92DD92ED92FC92E6
:104830001397249FF001259FF00D11246E0F7F1F09
:10484000811D911D14966D937D938D939C93179765
:1048500018964D925D926D927C921B970E94121752
:104860002C960FB6F894DEBF0FBECDBFDF91CF916F
:104870001F910F91FF90EF90DF90CF90BF90AF907E
:104880009F908F907F906F905F904F903F902F9070
:104890000895AF92BF92CF92DF92EF92FF920F9363
:1048A0001F93CF93DF93EC01EFEBF3E000E010E018
:1048B000DF0111978C918F3F21F480818F3F09F4A4
:1048C0006BC00F5F1F4F3A960A30110589F756C02B
:1048D000E114F10431F420E3A21619F089E090E02C
:1048E0004FC02CE3C216D10434F4C114D10431F406
:1048F00020E3B21619F08AE090E042C0009719F464
:104900008BE090E03DC06CE3689FA001699F500D73
:1049100011246E9D90016F9D300D11242C0D3D1DB5
:104920008AE0809FF001819FF00D1124E254FC4F3A
:1049300031832283538355274483109288036EE882
:1049400072E088E893E00E94163069E071E0C801E7
:104950000E94F90669E071E088E893E00E94163051
:1049600088E893E0DF91CF911F910F91FF90EF9036
:10497000DF90CF90BF90AF900C944B0F88E090E009
:10498000DF91CF911F910F91FF90EF90DF90CF902B
:10499000BF90AF900C94901BC8010E94A2028B8123
:1049A00080930901AC80A0920A0189E091E00E9405
:1049B000BE2F7C018D8180930901BE80B0920A01D7
:1049C00089E091E00E94BE2F6C018F8180931601D7
:1049D0008885809317018985809318018A85809343
:1049E000190186E191E00E94BE2F28E1E216F10450
:1049F0000CF46ECF73CFFF920F931F93CF93DF937F
:104A00008C010E945A00EC01803191054CF081E04C
:104A100090E0DF91CF911F910F91FF900C94901B2C
:104A2000F801858180930901868180930A0189E0DC
:104A300091E00E94BE2FF82E8E01025B1C4F811167
:104A400020C04AE050E069E071E0F801808190E028
:104A50000E9438301092880368E672E088E893E09C
:104A60000E94163069E071E088E893E00E941630F9
:104A700088E893E0DF91CF911F910F91FF900C9404
:104A80004B0FCE010E94D500C25CDC4F84ED8883C1
:104A90008F2D813108F080E1F8018083DF91CF9183
:104AA0001F910F91FF900C9412176F927F928F922B
:104AB0009F92AF92BF92CF92DF92EF92FF920F93AD
:104AC0001F93CF93DF93EC0180E3809316018093D3
:104AD00017018B81809318018C818093190186E1E5
:104AE00091E00E94BE2F6C019093FB028093FA022A
:104AF0008D81809318018E818093190186E191E068
:104B00000E94BE2F8C019093F9028093F8028B854E
:104B1000809318018C858093190186E191E00E94B1
:104B2000BE2F4C018093F6029092F7028D85809300
:104B300018018E858093190186E191E00E94BE2FB5
:104B40005C018093F402B092F5028F858093180186
:104B500088898093190186E191E00E94BE2F3C0173
:104B60009093F3028093F2028F81809316018885DF
:104B7000809317018985809318018A858093190194
:104B800086E191E00E94BE2F9093FD028093FC028B
:104B9000A801B6010E94E103DC018093F002B0930A
:104BA000F10220E831E541E050E00E94F32D6B0175
:104BB0007C019401A0E1BEE00E94E02DC60ED71E4C
:104BC000E81EF91EC60CD71CE11CF11C9501ACE3D4
:104BD000B0E00E94E02DC60ED71EE81EF91EC0925E
:104BE000A803D092A903E092AA03F092AB030E941B
:104BF000170788E893E00E944B0F0E94DB030E9496
:104C0000CF031092010180910001833081F4DF9184
:104C1000CF911F910F91FF90EF90DF90CF90BF90B9
:104C2000AF909F908F907F906F900C94460FDF9184
:104C3000CF911F910F91FF90EF90DF90CF90BF9099
:104C4000AF909F908F907F906F900895FC0120818E
:104C5000213610F020522083FC012181213610F0F2
:104C600020522183FC01308120E04181242B243417
:104C7000F0E53F0709F4B2C00CF04EC02435E3E480
:104C80003E0709F4C5C024F5283443E4340709F489
:104C900099C07CF42335F2E43F0709F4C3C0233400
:104CA00043E4340709F4BAC02934314409F0BCC0E4
:104CB000A9C02C34F3E43F0709F49EC0203543E437
:104CC000340709F487C02934334409F0ADC09EC0CD
:104CD0002436F8E43F0709F477C07CF42335E4E494
:104CE0003E0709F463C02335F7E43F0709F494C095
:104CF0002934344409F098C087C02335EEE43E07D8
:104D000009F458C02134F0E53F0709F465C02035A7
:104D10003E4409F089C05CC02134E3E53E0709F454
:104D200069C024F5263540E5340709F44FC07CF40A
:104D30002335F0E53F0709F443C0243540E5340747
:104D400009F44EC02934304509F06EC04BC02334FD
:104D5000F2E53F0709F454C0243442E5340709F46E
:104D60004DC02735304509F05FC054C02534E3E518
:104D70003E07F1F134F4233443E53407E9F0F4F469
:104D80004FC02335F3E53F0779F12CF42035334547
:104D900009F04AC02BC02934F4E53F0729F02C3430
:104DA000344509F041C004C00C9455250C945517A6
:104DB0000C94D4220C9423220C94F21A0C94AB166B
:104DC0000C94C5200C94D81A0C94C41A0C94791A1B
:104DD0000C9449240C9446200C94771F0C94F61ED6
:104DE0000C944E1E0C9455140C942C210C94111EF2
:104DF0000C94680F0C941E180C949E170C944F1171
:104E00000C94C70F0C94B01C0C94AC1B0C9416178C
:104E10000C94F81A0C94C0150C9446120C946F2044
:104E20000C94FB240C94411B08951F920F920FB613
:104E30000F9211242F933F934F935F936F937F9320
:104E40008F939F93AF93BF93EF93FF9340919404FD
:104E5000509195044F5F5F4F509395044093940495
:104E600060E070E080911F0190912001A0912101EC
:104E7000B0912201481759076A077B070CF455C007
:104E800010929504109294042091F2023091F30252
:104E90002F5F3F4F3093F3022093F2028091A803DB
:104EA0009091A903A091AA03B091AB030196A11D13
:104EB000B11D8093A8039093A903A093AA03B09374
:104EC000AB0341E040937E032C33310571F58091B3
:104ED000F4029091F50201969093F5028093F4020A
:104EE0001092F3021092F20240938303CC97E9F4FC
:104EF0008091F6029091F70201969093F7028093C9
:104F0000F6021092F5021092F402039711F40E9437
:104F10005E048091F6029091F702489731F4109266
:104F2000F7021092F6020E94A004809194049091DE
:104F3000950468E176E00E940E2E892B19F481E039
:104F400080938203FF91EF91BF91AF919F918F91D9
:104F50007F916F915F914F913F912F910F900FBE75
:104F60000F901F901895249884B18C6284B980E5C5
:104F70008CBD2A9A08952A98EFE9FFE03197F1F75E
:104F800000C000009B01FC01DB0150E007C08191E3
:104F90008EBD0DB407FEFDCF8EB58D93CD01821B66
:104FA000930B841795079CF32A9A0895299A0895DC
:104FB00029980895CF93DF9300D000D0CDB7DEB706
:104FC0008F7189838FEF8A8342E0BE016D5F7F4FCF
:104FD000CE0101960E94BB278C810F900F900F90FD
:104FE0000F90DF91CF910895CF93DF9300D000D041
:104FF000CDB7DEB78F71806289836A8342E0BE01DC
:105000006D5F7F4FCE0101960E94BB270F900F90DE
:105010000F900F90DF91CF9108950E94D82780E0E4
:105020000E94DA27682F6E7F80E00C94F4270E949C
:10503000D62780E00E94DA27682F616080E00C9418
:10504000F42780E00E94DA27682F6D7F80E00C94BF
:10505000F42780E00E94DA27682F626080E00C94D9
:10506000F4270F931F93CF93DF93CDB7DEB72C9721
:105070000FB6F894DEBF0FBECDBF182F1F71198376
:105080009FEF9A839B839C839D839E83812F8C506B
:10509000843078F48BE0898346E0BE01695F7F4FFE
:1050A000CE0101960E94BB27812F0E94DA278887B4
:1050B00008C046E0BE01695F7F4FCE0101960E94A5
:1050C000BB27FE013D96DE01199610E030E040E07E
:1050D00050E060E070E080E090E02291212B08E059
:1050E0000E94742E122FEA17FB07B9F72885212B8F
:1050F0002C960FB6F894DEBF0FBECDBFDF91CF91D7
:105100001F910F910895DF92EF92FF920F931F93DB
:10511000CF93DF93CDB7DEB72C970FB6F894DEBFF1
:105120000FBECDBFE02FD22EE32EF42EB52FA62F2B
:10513000F72F982F9A50923010F08031E9F58F7147
:1051400080628983EA832E2F312F4D2D5E2D6F2DA6
:105150007B2F8A2F9F2F08E00E94832E2B832E2FD8
:10516000312F4D2D5E2D6F2D7B2F8A2F9F2F00E12C
:105170000E94832E2C832E2F312F4D2D5E2D6F2DCF
:105180007B2F8A2F9F2F08E10E94832E2D832E2FA5
:10519000312F4D2D5E2D6F2D7B2F8A2F9F2F00E2FB
:1051A0000E94832E2E8346E0BE01695F7F4FCE01B1
:1051B00001960E94BB2703C0602F0E94F4272C9603
:1051C0000FB6F894DEBF0FBECDBFDF91CF911F9118
:1051D0000F91FF90EF90DF900895CF93DF9300D071
:1051E00000D0CDB7DEB780E68B838FEF8C8342E0B3
:1051F000BE016F5F7F4FCE0103960E94BB278A815D
:10520000813258F082EE8B8341E0BE016F5F7F4FA9
:10521000CE0103960E94BB2780E00F900F900F9065
:105220000F90DF91CF91089587E00E94DA27982FA1
:105230009E7081E009F080E008959F92AF92BF9246
:10524000CF92DF92EF92FF920F931F93CF93DF9352
:10525000CDB7DEB77C01ADB6BEB60E941429811170
:1052600002C0912C57C08FED9EE20197F1F700C06C
:1052700000000E94ED28982E882399F3082F10E053
:1052800098012F5F3F4F8DB79EB7821B930B0FB6D0
:10529000F8949EBF0FBE8DBFEDB7FEB73196821B4F
:1052A000930B0FB6F8949EBF0FBE8DBFCDB6DEB682
:1052B0008FEFC81AD80A81E6808320E030E08FEFB4
:1052C00006C02F5F3F4FDF01A20FB31F8C93201743
:1052D0003107BCF3492D4F5FB601CF010E94BB27B8
:1052E000F70120E030E007C02F5F3F4FD601A20F4B
:1052F000B31F8C91819320173107B4F387E00E948C
:10530000DA27682F606487E00E94F427F701E90D2F
:10531000F11D1082892D0FB6F894BEBE0FBEADBE32
:10532000DF91CF911F910F91FF90EF90DF90CF9081
:10533000BF90AF909F900895CF92DF92EF92FF922F
:105340000F931F93CF93DF93CDB7DEB7C254D1092C
:105350000FB6F894DEBF0FBECDBF6C010E941429BA
:10536000882309F181E68AA38E010D5D1F4F7E011E
:1053700083E4E80EF11CF8018FEF8193EE15FF0531
:10538000E1F741E2BE016F5F7F4FCE0182960E943E
:10539000BB27F601D8018D918D018193AE15BF0514
:1053A000C9F781E001C080E0CE5BDF4F0FB6F89413
:1053B000DEBF0FBECDBFDF91CF911F910F91FF9048
:1053C000EF90DF90CF900895CF92DF92EF92FF920F
:1053D0000F931F93CF93DF9300D0CDB7DEB7462F47
:1053E000EDB6FEB6062F10E098012F5F3F4F6DB768
:1053F0007EB7621B730B0FB6F8947EBF0FBE6DBFF6
:10540000ADB7BEB71196EDB7FEB7E21BF30B0FB603
:10541000F894FEBF0FBEEDBF2DB73EB72F5F3F4FD5
:10542000B90121EE2A8320EA2C936C0120E030E0C0
:105430000AC02F5F3F4FF60151916F01CD01820FDE
:10544000931FFC015083201731079CF34F5FCD0160
:105450000E94BB270E94D62704E610E08FE39FE15D
:105460000197F1F700C0000087E00E94DA27682F5B
:1054700085FF0DC087E00E94F4270E94D827EFE344
:10548000FFE13197F1F700C0000081E014C084FF14
:1054900004C087E00E94F42703C001501109F1F60F
:1054A00041E0BE016F5F7F4FCE0102960E94BB2795
:1054B0000E94D82780E00FB6F894FEBE0FBEEDBE66
:1054C0000F900F90DF91CF911F910F91FF90EF9070
:1054D000DF90CF900895CF93DF9300D0CDB7DEB7A4
:1054E00081EE8A8341E0BE016F5F7F4FCE0102965D
:1054F0000E94BB2782EE8A8341E0BE016F5F7F4F2F
:10550000CE0102960E94BB270F900F90DF91CF91A2
:1055100008950E94B327219A229A0C946B2ACF9364
:10552000DF93CDB7DEB7A7970FB6F894DEBF0FBEF7
:10553000CDBF1092A2021092C002529A84E090E075
:105540005A9A2FEF30E742E0215030404040E1F7D7
:1055500000C000005A985FEFA1EEB4E05150A040A7
:10556000B040E1F700C00000019751F75A9AE0EE11
:10557000F2E081E0DF0112971C92DF0111978C931A
:105580001082339622E0E23FF207A1F71092F10277
:105590001092F0021092F3021092F2021092F502B1
:1055A0001092F4021092F7021092F6021092F90291
:1055B0001092F8021092FB021092FA021092FD0271
:1055C0001092FC02EEEFF2E08EE393E06EE473E003
:1055D0004FEF30E111921192119211922FEFDC01F5
:1055E0004D93CD01DB013D93BD01B3E0EE33FB07ED
:1055F00089F720935E032093660320936E03209324
:105600007603789400E010E0C8010E94A2020F5FC8
:105610001F4F0A301105C1F70E94C2030E941408EF
:105620000E9417280E94FA080E94CF03198287E07F
:10563000EAE7F2E0DE01919601900D928A95E1F79A
:1056400080917E03813031F410927E030E944605E2
:105650000E94D60E80917F03813021F410927F0347
:105660000E94FA0580918003813011F40E94B001FC
:1056700010918103113011F40E943801809182034E
:10568000813069F4109282030E94B70E809100016C
:1056900081110E94070F113011F40E94380180918E
:1056A0008303813061F41092830380910101813082
:1056B00021F488E992E00E9446120E94E40780ECFF
:1056C00092E00E941D29082F10E0033011050CF410
:1056D000B7CF2FEF34E644E0215030404040E1F7AF
:1056E00000C000008091C0028A3759F5E1ECF2E079
:1056F000DE01919681918D9352E0E73CF507D1F759
:1057000062E071E0CE0181960E942130009789F419
:10571000E7ECF2E0DE01119602C081918D93CF019A
:10572000805C924080179107C4F3CE0101960E94DD
:105730002626E0ECF2E082EA92E0AE014F5F5F4F96
:105740002FC08236B1F7E1ECF2E0DE0111968191D3
:105750008D93CF01805C924080179107C4F342E0A3
:1057600050E06CE972E0CE0101960E942A30009769
:1057700051F042E050E06FE972E0CE0101960E94E4
:105780002A30009791F68091840390918503A0912F
:105790008603B0918703892B8A2B8B2B51F6C5CFBB
:1057A0001192DC011D92CD01DA011D92AD01B2E032
:1057B000EE3DFB07A9F744CF20FD09C0FC0123FD06
:1057C00005C022FF02C07383628351834083089522
:1057D000CF92DF92EF92FF920F931F9344FD10C080
:1057E00046FD10C0DB01FC01AA0FBB1FEE1FFF1F0F
:1057F0001094D1F76A0F7B1F8E1F9F1F31E003C0EB
:1058000033E001C034E0660F771F881F991F3150C5
:10581000D1F76B017C01C20ED11CE11CF11C970178
:105820008601B601C9011F910F91FF90EF90DF90A3
:10583000CF9008950F931F93CF93DF938C01C801EE
:105840000E94AA30EC0197FD08C00E940330892B0A
:10585000B1F7B801CE010E94EA30CE01DF91CF91BD
:105860001F910F9108958F929F92AF92CF92DF92E6
:10587000EF92FF920F931F93CF93DF93EC01A62E2D
:105880004A01022F0E94AA30FC01FF27EB32F105EA
:1058900019F0BD9751F40068AA9411F480E063C038
:1058A000CE010E94AA3097FDF9CF102F1D7F302F17
:1058B0003073E1F48033D1F4AA9409F440C0CE01EE
:1058C0000E94AA3097FD3BC0883711F0883549F413
:1058D0001264AA94A1F1CE010E94AA3097FF06C0DB
:1058E0002EC006FF02C0126001C01261C12CD12C73
:1058F0007601282F2053283080F014FF04C0BE0109
:105900000E94EA3019C02A3040F016FFF8CF2F7DF0
:10591000322F3151363098F72750412FC701B60149
:105920000E94E82B6B017C011260AA9459F0CE0111
:105930000E94AA3097FFDDCF11FD04C0AFCFC12C6C
:10594000D12C760117FF08C0F094E094D094C09455
:10595000C11CD11CE11CF11C212FB701A601C401FF
:105960000E94DC2B81E0DF91CF911F910F91FF907E
:10597000EF90DF90CF90AF909F908F9008954F92CF
:105980005F927F928F929F92AF92BF92CF92DF925F
:10599000EF92FF920F931F93CF93DF931F92CDB798
:1059A000DEB78C012B015A01FC0117821682812C73
:1059B000E3C08E2D90E00E940330892B21F0C801B6
:1059C0000E941A2CD9C0F5E2EF120AC0F201F3FCD2
:1059D0003591F3FE31912F01353271F455E2E52E08
:1059E000C8010E94AA3097FDD2C0E81609F4C4C0CD
:1059F000B8010E94EA30CDC03A3241F4F3FC35914F
:105A0000F3FE31912F019924939401C0912C712CB4
:105A100010C0F2E09F2A672D70E080E090E040E245
:105A20000E94E82B762EF201F3FC3591F3FE3191C2
:105A30002F01232F20532A3060F391FE03C07110F1
:105A400003C0A7C077247A94383619F03C3699F40D
:105A50000AC0F201F3FC3591F3FE31912F01383683
:105A600051F4F8E09F2A84E0982AF201F3FC359182
:105A7000F3FE31912F01332309F48BC0632F70E0C3
:105A800088E690E039830E940B303981892B09F434
:105A900080C090FC07C0F501E080F18082E0A80E94
:105AA000B11C02C0E12CF12C3E3651F4F8014681C4
:105AB000578160E070E0292DC7010E94DC2B5CC09B
:105AC000333691F491FC02C077247394C8010E948C
:105AD000AA3097FD5CC0E114F10419F0F70181933D
